:0200000400FFFB
:1000000060C1E0C2FEFFFF982000FF98060300C316
:10001000FF0080C2AE03FF980804FF90B66F010294
:1000200006302630463000C2CC0320C2FF0040C05C
:1000300000C1842880C802CE444440862400608ADF
:10004000EEFF00C2C60320C2FF0000C1842880C8A2
:1000500002CE444440860002608AEEFF00C180C2A6
:10006000280000C2FF0000C800C2E00402CE80C227
:100070002C0000C2FF0000C800C22C0502CE80C2C6
:10008000300000C2FF0000C800C26C0502CE80C272
:10009000340000C2FF0000C800C2280602CE80C2A1
:1000A000380000C2FF0000C800C2040702CE80C2B0
:1000B000640000C2FF0000C800C21E0D02CE80C254
:1000C000680000C2FF0000C800C2240D02CE80C23A
:1000D0006C0000C2FF0000C800C27A0D02CE80C2D0
:1000E000700000C2FF0000C800C25E0E02CE80C2D7
:1000F000740000C2FF0000C800C2761602CE80C2A3
:10010000780000C2FF0000C800C2A81802CE80C25A
:100110003C0000C2FF0000C800C27C0702CE80C2C3
:10012000400000C2FF0000C800C27C0802CE80C2AE
:10013000440000C2FF0000C800C2820902CE80C293
:10014000480000C2FF0000C800C26C0A02CE80C294
:10015000A00000C2FF0000C800C2D02102CE80C2B1
:10016000A40000C2FF0000C800C2F22102CE80C27B
:10017000A80000C2FF0000C800C2182202CE80C240
:10018000AC0000C2FF0000C800C23E2202CE80C206
:10019000B00000C2FF0000C800C2642202CE80C2CC
:1001A000F00000C2FF0000C800C27E5602CE80C22E
:1001B000F40000C2FF0000C800C27E5702CE80C219
:1001C000F80000C2FF0000C800C2FC5702CE80C287
:1001D000FC0000C2FF0000C800C2005902CE80C26D
:1001E000000100C2FF0000C800C2565A02CE80C201
:1001F0007C0000C2FF0000C800C28A6402CE80C238
:10020000800000C2FF0000C800C2040F02CE80C2FE
:100210002C0100C2FF0000C800C29A1A02CE80C2A0
:10022000040100C2FF0000C800C2623902CE80C2D1
:10023000C80000C2FF0000C800C2902402CE80C2E5
:10024000CC0000C2FF0000C800C2F62402CE80C26B
:10025000D00000C2FF0000C800C2D42402CE80C279
:10026000D40000C2FF0000C800C2B22402CE80C287
:10027000080100C2FF0000C800C2F86102CE80C2BF
:100280000C0100C2FF0000C800C2D06202CE80C2D2
:10029000100100C2FF0000C800C27E3802CE80C23A
:1002A000140100C2FF0000C800C28C3902CE80C217
:1002B000180100C2FF0000C800C2943A02CE80C2FA
:1002C0001C0100C2FF0000C800C2BE3A02CE80C2BC
:1002D000200100C2FF0000C800C2F03A02CE80C276
:1002E000300100C2FF0000C800C20E2802CE80C24A
:1002F000340100C2FF0000C800C2882502CE463883
:100300002638063804F6063000C010EE000210EE63
:10031000020210EE040210EE060210EE1C0210EEB5
:10032000320200C2010110EE00A300C2EA0710EE83
:1003300002A306C010EE04A31CC010EE06A300C268
:10034000BC0310EE08A300C2FF0010EE0AA3FF9842
:10035000F00FFF987A03FF98C01BFF98121CFF98BC
:100360004C67FF98486EFF988A22FF98442BFF98AD
:100370003E30FF98B01B063804F60630063400C342
:10038000E00080C2682400A0008668240E8802C0B5
:1003900010EE1C0201C010EE3C020C8C01C010EEED
:1003A0001C0205C010EE3C02063C063804F6426F03
:1003B0006F74696E67206B2F4F530A00506861732A
:1003C000652034392B0000C2FFFF84F460A0006672
:1003D0007000F008104410842288100211842288D2
:1003E00011021284228812021384228813021484B8
:1003F0002288140215842288150216842288160287
:100400001784228817021F022630863480180000C5
:1004100020C000C3DF0080C020A800840A8800D06C
:1004200021042144008EF0FF0228863C263804F681
:1004300000C3DF0080C000D004F6263046302028FC
:1004400040C000C180C2230220842E88010600C261
:10045000300000D04144008E24002084008A1E0019
:10046000022846300634FF982669063C4638204666
:100470003000010680D041442028008EDCFF801827
:10048000000000C3DF0080C040840C8820A800D09A
:1004900021044154008EF0FF4638263804F62630F9
:1004A000463040282428F00A2F642A846688204693
:1004B0003700048C2046300000C3DF0080C080D0AD
:1004C00024282F642A84668820463700048C20461E
:1004D000300000C3DF0080C080D04638263804F6E4
:1004E000063086C6000000C112A600660800063865
:1004F000208A0C0000C3DF0080C000D000C004F4DC
:10050000063286340635A6C6000020C130C6380241
:100510002EA72480288840C3DF00C0C040D0FF98A9
:10052000E428063D863C063A00C004F4008E000034
:1005300086C6000000C112A600661800008A1807CF
:10054000463086C6000000C10EA650C638020480A0
:100550000888FF98E80C008EE8FFFF98360C688842
:10056000FF98B60C008EDAFF463804F4063486C6CF
:10057000000000C112A600660800063C208A3A006E
:10058000263086348018000020C000C3DF0080C001
:1005900000F820A800840A8800D021042144008E9D
:1005A000F0FF10C63202EE0800860100228800FA31
:1005B0000228A0C1863C263804F606328634063569
:1005C0000019000020C0A6C6000020C110C63802D5
:1005D000AEA70680248861C0028C60C000C3DF0023
:1005E00080C000F840A80084008A2200608402884D
:1005F00000D02630663006340635FF98E428063DE4
:10060000063C6638263841042144008ED6FF10C6C9
:100610003202EE0800860100228800FA0228A0C1FA
:10062000063D863C063A04F6063486C6000000C144
:1006300012A600660800063C208A40002630863458
:100640008018000020C000C3DF0080C000F820A890
:1006500000840A8800D021042144008EF0FF0AC0E3
:1006600000D0214410C63202EE0800860100228824
:1006700000FA0228A0C1863C263804F606328634E9
:1006800006350019000020C0A6C6000020C110C613
:100690003802AEA70680248861C0028C60C000C307
:1006A000DF0080C000F840A80084008A2200608437
:1006B000028800D02630663006340635FF98E428DC
:1006C000063D063C6638263841042144008ED6FF9C
:1006D0000AC06084028800D0263066300634FF9855
:1006E000E428063C66382638214410C63202EE085B
:1006F00000860100228800FA0228A0C1063D863C3F
:10070000063A04F60632863480180000402820C0DD
:100710002630FF9830052638602860860D00008A54
:10072000460060860A00008A3E006086080016883F
:100730002480408ADAFF0628FF98E004A0D1210433
:100740002144008ECAFF2084008AC4FF2106215460
:1007500008C0FF98E00400C22000FF98E00408C031
:10076000FF98E004008EA8FF0AC0FF98E00460C074
:10077000A0D10228A0C1863C063A04F6063086C6FF
:10078000000000C112A60066080080280638063264
:100790008634682A6084008A020061C0202840C034
:1007A00000F800C180C2230220842E88010600C206
:1007B000300000D04144008E28002084008A2200AE
:1007C0000228463066300634FF982669063C6638B3
:1007D000463820463000010680D041442028008E53
:1007E000D8FF6084208A34008018000000C3DF0036
:1007F00080C0642860840C88A0A880D02104615443
:10080000008EF0FF10C63202EE080086010022883A
:1008100000FA0428A0C1863C063A04F624280019F0
:100820000000A6C6000020C110C63802AEA7068090
:10083000248861C0028C60C000C3DF0080C0408497
:10084000008A200040A86084028800D00632063466
:100850000635FF98E428063D063C063A410441541B
:10086000008EDAFF10C63202EE08008601002288F0
:1008700000FA0228A0C1863C063A04F6063086C675
:10088000000000C112A6006608000638208A4E004B
:1008900026304630402800C3DF0080C000F804281E
:1008A000EC08F008FF9846090428EC080F64FF984C
:1008B00046090428EE08F008FF9846090428EE08C7
:1008C0000F64FF98460910C63202EE080086010048
:1008D000228800FA04C0A0C14638263804F6063241
:1008E000863406354028A6C6000020C110C638024E
:1008F000AEA70680248861C0028C60C000C3DF0000
:1009000080C000F80428EC08F008FF985809042873
:10091000EC080F64FF9858090428EE08F008FF98C7
:1009200058090428EE080F64FF98580910C63202CF
:10093000EE0800860100228800FA04C0A0C1063D2E
:10094000863C063A04F60A84468800463000048C49
:100950000046370000D004F60A844688004630007E
:10096000048C004637006084028800D04630663030
:1009700006340635FF98E428063D063C66384638BE
:1009800004F686C6000000C112A600660800208A90
:100990004C0026304630863400C3DF0080C000F8AB
:1009A00030C61C0220860100168820C3FF00A0C2AA
:1009B000640A20A940840C8800D12104008EF2FF33
:1009C0004CC000D110C63202EE0800860100228819
:1009D00000FA00C0A0C1863C4638263804F606322C
:1009E00086340635A6C6000020C100C24C0020A2F5
:1009F000C02800C24E0020A2402940C2001900C0F9
:100A000040D041044154208AF6FF40C2520000C049
:100A100030CA10C63802AEA70680208A3A0000C34A
:100A2000DF0080C000F830C61C0220860100168856
:100A300020C3FF00A0C2640A20A940840C8800D112
:100A40002104008EF2FF4CC000D110C63202EE0825
:100A500000860100228800FA00C0A0C1063D863C45
:100A6000063A04F61B5B324A1B5B48000630263010
:100A700086C6000000C112A60066080026380638A7
:100A8000208A50004630663050C61C024086010065
:100A9000008A360000C3DF0080C000F85BC000D1D0
:100AA00040C25B0000D1FF98580B40C23B0000D110
:100AB0000228FF98580B40C2480000D110C63202ED
:100AC000EE0800860100228800FA00C0A0C1663846
:100AD000463804F6463066308634A6C6000020C18B
:100AE0000084028801542084028821546028F20E78
:100AF000F20E626840C25200B0CB50C63802AEA7B8
:100B00004680208A46000144214450C61C0240868B
:100B10000100008A360000C3DF0080C000F85BC01F
:100B200000D140C25B0000D1FF98580B40C23B008F
:100B300000D10228FF98580B40C2480000D110C6CF
:100B40003202EE0800860100228800FA00C0A0C12F
:100B5000863C6638463804F660C040C000866400B3
:100B60006A88005664004144008EF0FF4084088883
:100B70004046300000D161C040C00A8468880A54F1
:100B80004144008EF4FF40842488608406884046F7
:100B9000300000D10046300000D004F6EE08008698
:100BA0000E00008A2E0000861000008A38000086A1
:100BB0008100608A420000868B00408A3A0000561D
:100BC0008000463066300635FF987A28063D663844
:100BD000463804F6463066300635FF988C27063DC9
:100BE0006638463804F6463066300635FF98C0272A
:100BF000063D6638463804F6EE0830C60402214445
:100C000020663F0090C606022880008A2600B0C6F3
:100C1000040220C1A046802720D030EE040230C656
:100C20003E0220840E88A22820C100C02ACE00C027
:100C300010EE3E0204F610C6040230C60602028020
:100C4000148800C180C2802708AA214420663F0082
:100C500030EE060204F484F4FF98360C6888FF989E
:100C6000B60C008EF2FF04F40630063206348634E9
:100C7000063530C60802A22820C12ACE0E2A20CE70
:100C8000162A22CE60C1E0C2FEFFFF988A1310C66A
:100C9000080200860008008A1800A02820C120A6AB
:100CA000E02822A66029063D863C063C063A063826
:100CB00000FCFF90EA14A63700F8FF98360C408A33
:100CC0001800A639063010C63202EE080086010070
:100CD000228800FA0638A0C104F610C6080210EEF9
:100CE0003E0206C0008E80FFA63700F800C0008ECE
:100CF00076FF06302630863430C63E0220841688C1
:100D0000A22820C12AA600860600248800C02ACE78
:100D100000C010EE3E02863C2638063804F606C6B1
:100D2000040004F4A63700F8063006320634863490
:100D3000063510C60802A02820C10E2A20CE162A89
:100D400022CE3CA601443CCE60C1E0C2FEFFFF982B
:100D50008A1310C6080200860008008A1800A0281E
:100D600020C120A6E02822A66029063D863C063C3C
:100D7000063A063800FCFF90EA14A63700F8063061
:100D8000063206348634063510C60802A02820C173
:100D900072A702C02ACE38CFAEA70628FF98861BBE
:100DA0000628FF984215608A560010C60802A0283F
:100DB00020C132A600661800008A0C00FF986E1150
:100DC00000C2000810EE08020628FF987E1560C1D8
:100DD000E0C2FEFFFF988A1310C6080200860008D2
:100DE000008A1800A02820C120A6E02822A6602999
:100DF000063D863C063C063A063800FCFF90EA14A5
:100E0000CA2A40C10428FF98B61500C04ACE00C0C7
:100E10005ACE10C60802A02820C1FF986E1100C249
:100E2000000810EE08020628FF987E1560C1E0C297
:100E3000FEFFFF988A1310C6080200860008008A89
:100E40001800A02820C120A6E02822A66029063D7F
:100E5000863C063C063A063800FCFF90EA14008403
:100E6000228804F4A63700F80630063206348634A9
:100E7000063510C60802A02820C10E2A20CE162A48
:100E800022CE3CA601443CCE72A710C6000204400C
:100E900028CE01C02ACE60C1E0C2FEFFFF988A13AF
:100EA00010C6080200860008008A1800A02820C189
:100EB00020A6E02822A66029063D863C063C063A8C
:100EC000063800FCFF90EA1446300635CA2A40C1B5
:100ED0004EA70428FF98861B0428FF987E15042837
:100EE000FF984215408A0E0058A6FF98B61500C01C
:100EF0002ACE00C03ACEAC2A20C1FF986E11063D22
:100F0000463804F600F846306630863406350084EC
:100F1000008A9C0050C60802A42820C12EA7048085
:100F2000008A8C00FF98FC14408A8E00CA2A40C1B7
:100F30004AA760C040860200208A020061C0408645
:100F40000500008A880052A740660400208A7400C9
:100F500050C60802A42820C132A740660200208A99
:100F60000A0056A72EA64080208A58006184008A75
:100F70000A0042C04ACF40C2FFFF58CFAC2A20C16E
:100F8000FF98C80EC0C2800840C140C23E00CAA738
:100F9000608602002888AC2A20C1FF98C80EC0468F
:100FA00080004154208AE6FF00C0A0C1008E2400CA
:100FB00000C2FDFFA1C1008E1A0000C2E4FFA1C162
:100FC000008E100000C2F6FFA1C1008E060000C214
:100FD000F5FFA1C1A63750C63202EE0C40860100D3
:100FE000228800FAA639063D863C6638463804F663
:100FF000063026308634063520C1A0C2000820C243
:101000003F0003C02ACEA04680002154208AF4FF6E
:1010100000C010EE0C0210EE100210EE1A0220C1F9
:10102000A0C2000800C2FEFF20CE00C022CE00C039
:1010300024CE26CE28CE00C02ACE00C02CCE2ECE66
:1010400030CE32CE34CE36CE38CE3ACE3CCE3ECE78
:10105000CA2AC046600040C100C2690040D0C144F5
:1010600000C2640040D0C14400C26C0040D0C14402
:1010700000C2650040D0C14400C040D000C200089A
:1010800010EE0802063D863C2638063804F6263067
:101090004630863420C1A0C2800820C23E0043C032
:1010A0002AA604801088A04680002154208AF0FFE0
:1010B00000C0A1C1088C00C02ACE0A2AA0C1863C6B
:1010C0004638263804F62630463086344028A0C2FA
:1010D000800820C120C23E002AA6008603000688A0
:1010E00022A604801088A04680002154208AE8FFB0
:1010F0000428A0C1048C0428A1C1863C46382638A7
:1011000004F62630463050C63002EE0C414422C070
:101110000228FF98C6106E8821442480608AF0FF60
:1011200000C0A1C1048C0228A0C14638263804F6AC
:101130002630463006348634802800C130C60C0282
:1011400020842A88482A06CF50EE0C020C8CA22854
:1011500020C126A706CF482A26CF50C610024144F8
:1011600050EE1002863C063C4638263804F606301F
:1011700006320634063532A600661800008AC4001E
:10118000AEA660C2500038A20084008A0E0000861D
:101190008008608A72000A80208A120000C010EE67
:1011A000380210EE3A02FF98F20C008E5A00C02866
:1011B00040C150C058A20A80008A0C00C028415487
:1011C000208AF0FF008E400038A258CA10C63802AC
:1011D0000280208A1C0058A2802800C10EA610EEB2
:1011E0003802FF98F20CA636A82AFF986026A63887
:1011F00020C110C63A020280208A0C0058A2802822
:1012000000C10EA610EE3A0260C24C0038A280283F
:1012100060C24E0038A200298084008A0400FF9832
:10122000061D00C060C2500038CA60C24C0038CAF7
:1012300060C24E0038CA60C2240038CA32A60066B6
:10124000E7FF32CE2EA60084008A08008634FF987D
:101250005821863C10C60C020084008A3000802889
:1012600000C1C82A40C106A60A800A8880288C804E
:10127000208AF2FF188C26A606CE10C60C020A8021
:101280002C8826A60A80228800C010EE0C0203C01B
:101290002ACE00C026CE063D063C063A063804F6A5
:1012A0002630463086340635FF988E10408ACC00B2
:1012B000A02820C110C6160222CE10C6180224CEC5
:1012C00000C02CCE30CE32CE34CE38CE3ACE3CCE4C
:1012D0003ECE28CECA2AC046200040C140C23000BF
:1012E00040C8C2444154208AF6FFC0C2400240A810
:1012F0000084008A2000122B8A2A804660005FC08A
:1013000040A800D000840E88C14481444154208A02
:10131000EEFF00C000D010C61A0236CE10C6100272
:1013200001442ECE10C616024029C0C2F0FF00C2F2
:10133000800040C8C0C2F2FF10C6140240C8C0C23C
:10134000F4FF10C6120240C800C0C0C2DCFF40C893
:10135000C244C086F0FF608AF4FFC0C00A2A40C8B9
:10136000C4C010C61002014440C800C2DCFF20CE39
:101370000A2AFF9830110A2AA0C1048C00C0A1C11A
:10138000063D863C4638263804F6263046308634FC
:1013900010C6080200860008288850C60C022428BF
:1013A000088CA02820C126A72428A22820C12AA66C
:1013B000008600000A88A6A624801088008EEAFF16
:1013C00030EE0802863C4638263804F620C2000873
:1013D00030EE0802863C4638263804F606300632DF
:1013E0000634863470C6000220C2800840C23E0027
:1013F00020C1A2282AA600860100308828B6062827
:10140000085000660080248800C02ACE2046800054
:101410004154208ADCFF863C063C063A063804F636
:101420000630863466A600667000F008E00820C327
:10143000FF00A0C2381420944814481448144814DB
:101440004814481448144814863C063806300632BE
:1014500006348634063510C60802A02820C10E2A9C
:1014600020CE162A22CE3EA601443ECE20C2220025
:1014700028A2004C28CA60C1E0C2FEFF10C60002CC
:1014800030C63C02024010EE000210C60202004CC0
:1014900010EE020230C60402214420663F0010C64E
:1014A00006022080148800C3DE0080C000A00084F3
:1014B0000888FF989C0B008EDAFFFF98DC13FF98DA
:1014C0008A1310C6080200860008008A1800A028A7
:1014D00020C120A6E02822A66029063D863C063CC5
:1014E000063A063800FCFF90EA14E0C2FEFF60C135
:1014F00001C010EE320200FA008EFCFF0084008A68
:101500003A00263046304028A0C2800820C120C2C0
:101510003E002AA60086030006882EA604801488B2
:10152000A04680002154208AE8FF46382638A0C013
:1015300020C184F404284638263804F4A0C020C111
:1015400084F4263046304028A0C2800820C120C242
:101550003E002AA60086040026883AA60480168843
:10156000A04680002154208AE8FFA0C020C10428A2
:101570004638263884F404284638263804F42630C1
:10158000463086344028A0C2800820C120C23E00D8
:101590002AA6008603000A8836A60480248800C094
:1015A00036CEA04680002154208AE4FF0428863CE1
:1015B0004638263804F6063206346028A0A622A74C
:1015C00004298228924480C9824420C2800080C8B5
:1015D0000628063C063A04F6063446304084008A63
:1015E0007A00408601FE408A7200FF980211408A0C
:1015F000740010EE160210EE14024638063C10C6B7
:1016000016024029C0C2000200A040C88244C24461
:101610004254208AF2FF00C2000210EE120201C002
:1016200010EE180200C010EE1A0200C180C2400283
:1016300030C020A800D00084008A0E00A14481445C
:101640002154208AECFF00C000D0FF98A012408AED
:101650001E0020C1A02846C032CF04F44638063C04
:1016600000C2FAFF84F44638063C00C2FCFF84F452
:1016700000C2FBFF84F4A63700F8063006320634B9
:10168000863406356EA60084008ACC00008601FEF2
:10169000408A180172A600860200608ABA0000869D
:1016A0004000408AB20070A6EEA6A0C10240408A67
:1016B000A600FF980211408A460110EE160210EEB5
:1016C000140272A6002970A6802810C616022029CE
:1016D000A0C20002EEA600A820D08144A14421545B
:1016E000208AF2FF00C2000210EE120201C010EECA
:1016F000180206C6040010EE1A02FF98A012408AD3
:101700005201A02820C12EA672CE00C2800074CE45
:1017100010C60802A02820C10E2A20CE162A22CEEA
:101720003CA601443CCE60C1E0C2FEFFFF988A1394
:1017300010C6080200860008008A1800A02820C1F0
:1017400020A6E02822A66029063D863C063C063AF3
:10175000063800FCFF90EA1400C2F9FF72CE00C206
:10176000810074CE10C60802A02820C10E2A20CE07
:10177000162A22CE3CA601443CCE60C1E0C2FEFF48
:10178000FF988A1310C6080200860008008A180015
:10179000A02820C120A6E02822A66029063D863C7C
:1017A000063C063A063800FCFF90EA1400C2FAFF35
:1017B00072CE00C2810074CE10C60802A02820C1DB
:1017C0000E2A20CE162A22CE3CA601443CCE60C171
:1017D000E0C2FEFFFF988A1310C6080200860008C8
:1017E000008A1800A02820C120A6E02822A660298F
:1017F000063D863C063C063A063800FCFF90EA149B
:1018000000C2FCFF72CE00C2810074CE10C6080276
:10181000A02820C10E2A20CE162A22CE3CA60144A2
:101820003CCE60C1E0C2FEFFFF988A1310C60802DA
:1018300000860008008A1800A02820C120A6E02801
:1018400022A66029063D863C063C063A063800FC86
:10185000FF90EA1400C2FBFF72CE00C2810074CE7A
:1018600010C60802A02820C10E2A20CE162A22CE99
:101870003CA601443CCE60C1E0C2FEFFFF988A1343
:1018800010C6080200860008008A1800A02820C19F
:1018900020A6E02822A66029063D863C063C063AA2
:1018A000063800FCFF90EA14A63700F8063006322E
:1018B00006348634063572A6FF98FC14408ADE0092
:1018C000CA2A40C136A626C604000280208A220108
:1018D00072A6FF9842154C880A2A30C60802028078
:1018E000208A620110C60802A02820C14AA60086EC
:1018F0000200008A4E0000C2800074CE72A63ACE6A
:1019000004C02ACE0E2A20CE162A22CE3CA601449E
:101910003CCE60C1E0C2FEFFFF988A1310C60802E9
:1019200000860008008A1800A02820C120A6E02810
:1019300022A66029063D863C063C063A063800FC95
:10194000FF90EA1458A672CE00C2800074CEAC2A72
:1019500020C1FF986E1110C60802A02820C10E2ACF
:1019600020CE162A22CE3CA601443CCE60C1E0C265
:10197000FEFFFF988A1310C6080200860008008A3E
:101980001800A02820C120A6E02822A66029063D34
:10199000863C063C063A063800FCFF90EA1400C27A
:1019A000F9FF72CE00C2810074CE10C60802A028D2
:1019B00020C10E2A20CE162A22CE3CA601443CCEBF
:1019C00060C1E0C2FEFFFF988A1310C608020086BD
:1019D0000008008A1800A02820C120A6E02822A61E
:1019E0006029063D863C063C063A063800FCFF901E
:1019F000EA1400C2F8FF72CE00C2810074CE10C695
:101A00000802A02820C10E2A20CE162A22CE3CA6EB
:101A100001443CCE60C1E0C2FEFFFF988A1310C6AD
:101A2000080200860008008A1800A02820C120A60D
:101A3000E02822A66029063D863C063C063A063888
:101A400000FCFF90EA1400C2F7FF72CE00C28100D2
:101A500074CE10C60802A02820C10E2A20CE162A55
:101A600022CE3CA601443CCE60C1E0C2FEFFFF98FE
:101A70008A1310C6080200860008008A1800A028F1
:101A800020C120A6E02822A66029063D863C063C0F
:101A9000063A063800FCFF90EA1400F8463066303B
:101AA0008634063500860400408AA40050C6080229
:101AB000A42820C1AEA750C636020084008A440084
:101AC00040840A884680008A2400008E8C0070EED4
:101AD0003602B2A6206E1000B2CE0630FF980E2A53
:101AE00006384A88AEA630EE3802FF98F20C20C2C3
:101AF000240028CA80C000C3DD0000C800C0A0C107
:101B0000008E66004084008A3E004680208A540091
:101B1000B2A62066EFFFB2CE20C2240000C028CAC1
:101B200010EE36022EA630C6380202802888FF98B2
:101B30008C27008E060000C0FF98A61B10C6080266
:101B4000A02820C1FF983C2A00C0A0C1008E1A0026
:101B500000C2FDFFA1C1008E100000C2F5FFA1C1AF
:101B6000008E060000C2F6FFA1C1A63750C63202A1
:101B7000EE0C40860100228800FAA639063D863C1C
:101B80006638463804F62630063430C636022080E1
:101B90002E8820C030EE360280C000C3DD0080C831
:101BA000063C263804F680C000C3DD0000C804F6F9
:101BB00000C010EE360280C000C3DD0000C804F68D
:101BC000063001C010EE260210EE2E0200C010EE0C
:101BD0002A0210EE2C0210C61C02008601001A8890
:101BE00000C2000110EE240200C23F0010EE3002DD
:101BF00000C2FF0010EE2802148C00C2200010EE7C
:101C000024021FC010EE300201C010EE2802063878
:101C100004F60630263001C020C0FF98321C01C0F7
:101C200010EE2A0200C2DAFF10EE2C022638063827
:101C300004F646300634002980C040C2E0FF00CFE1
:101C400041C002CF50C004CF86CE40C2DAFF08CFD9
:101C500040C2164B0ECF8046100040C2DAFF00CFC4
:101C600042C002CF40C004CF40C006CF08CF063CE0
:101C7000463804F606328634063520282086DBFFF7
:101C8000408A740020860400428824C042284164AF
:101C9000408402882144FF98521D7088FF986C1F71
:101CA000408A5400FF98521D408A4C0020A76428A7
:101CB000625060860A006488FF98981DFF98FE1D98
:101CC00022A7406E010022CF50C6080240840C8833
:101CD000063400C184280EA7063C028C40C024CFE5
:101CE00020A74046060070C62C02645070EE2C02FD
:101CF000261E0000A0C1068C00C2FCFFA1C1063D4B
:101D0000863C063A04F6263046308634302B282AA4
:101D100020560600A228A2A6422840660100408460
:101D2000008A20002066FEFFA2CE20A740460600C3
:101D300030C62C02244030EE2C02FF98421E00C018
:101D4000A0C1068C00C2FDFFA1C1863C46382638E2
:101D500004F64630063410C62E020084008A2E0097
:101D6000002980C004A7408416882029A42820A721
:101D70004280568828A740840688A428008EEEFF5B
:101D800006A70428EE08008ED0FFA0C1048C00C076
:101D9000A1C1063C463804F646306630063420A71A
:101DA000A2A7261E0000082A02408028042802500C
:101DB0000056060000CE06280066020002CE00C0D3
:101DC00004CE26A606CE28A608CEA0CE06280066FB
:101DD000FDFF22CE102AEE0826CE082A28CE122B8E
:101DE00088C000A00056060000C810C62C0200568D
:101DF000060010EE2C02063C6638463804F64630E3
:101E0000663006340635122B80C004A76A2A468045
:101E1000288828A704CF008E1E00522BC42848A76C
:101E20006A2A46800A8840840E88C428008EEEFF05
:101E300026A746CF28A748CF063D063C6638463839
:101E400004F64630663006340635122B80C004A7EF
:101E50004084008A22006A2A6480608A2800522B0B
:101E6000C42848A74084008A2C006A2A4680408AF9
:101E70002400C428008EEAFF4A2A04CF40C026CF9F
:101E800028CF008EDC00722AEE0EA6CF28CF4A2A79
:101E900004CF008E620046A726CF48A728CF522A3B
:101EA000EE0C46CF4A2A48CF40A7404606006C2A8F
:101EB00064404A2A4680208A3E0040A7A0A74640A8
:101EC0004046060040CF26A746CF28A748CF22A7E6
:101ED0004066020040840888C2A7606E0200C2CF3C
:101EE00008A74046060008CF50C62C024046060010
:101EF00050EE2C02C018000022A740660200408469
:101F0000208A5E0020A7404606006A2A6440608658
:101F1000F0FF408A4C00522BC62842A76428606616
:101F200001006084208A3A00A0A740A76440604670
:101F30000600A0CFC6A7A6CFC8A7A8CF42A74066D5
:101F4000020040840888A2A7606E0200A2CF08A702
:101F50004046060008CF50C62C024046060050EE10
:101F60002C02063D063C6638463804F60632063436
:101F700030C62802EE0A50C62602EE0C2480008AE3
:101F8000660040C240002480608A5C0070C62E0259
:101F9000EE0E6084168864800C88062986C080A1B5
:101FA000EE0E008EECFF4144008EDAFF042820C0C4
:101FB000FF98321C70C62E02EE0E062986C080A045
:101FC000EE0A208406886228008EEEFF00C930C623
:101FD0002A02214430EE2A0230C62C022046DAFFC3
:101FE00030EE2C02A0C1068C00C2FCFFA1C1063C51
:101FF000063A04F60632863406350084008A8C00E0
:102000006028282A502A246820842A880628FF98D5
:10201000741C008E7C00302B282A20560600A22833
:10202000A2A64228406601004084008A5E00A0A665
:1020300026806688A0C1008E580006340628FF98C6
:10204000741C408A3A00063D342B2C2A2056060088
:10205000A22820A78636C63640840E88C0A880D025
:10206000C14481444154008EEEFFC63886380634A0
:102070008C2A142BFF98061D063CA0C1008E12006E
:10208000063C00C2FCFFA1C1008E060000C2FDFF9D
:10209000A1C1063D863C063A04F670C62A02EE0E41
:1020A00020C0462840840A882046DAFF4154008E2A
:1020B000F2FF10C62C02205040C010C62E02EE08BF
:1020C0000084008A2C002029A0C024A60084008A55
:1020D0001800522BC02840A640804288402848A6BD
:1020E00000840688C028008EECFF26A6EE08008E2D
:1020F000CEFF10C62C02A0C104F610EEF00320C0E3
:1021000040C010C62E02EE080084008A4600202936
:10211000A0C0522BD0C042A60066010000841088E7
:1021200044A670C6F00306802688214440A640409D
:1021300042A6006602000084208A100040A60046E5
:1021400006006C2A6040C628008ECAFF26A6EE084C
:10215000008EB4FFA0C104F610EEF00310C62E02EC
:10216000EE080084008A600010EEF2032029A0C06F
:10217000522BD0C042A6006601000084008A2400D1
:1021800044A670C6F0030680208A1800461E000090
:10219000FF98061D10C6F2032029A0C0522BD0C004
:1021A000008ED0FF42A6006602000084208A100044
:1021B00040A6004606006C2A6040C628008EB4FF88
:1021C00026A6EE08008E9AFF04F610C62C0204F62E
:1021D0000632863400F8FF98741CA63730C63202E7
:1021E000EE0A20860100228800FAA639863C063ACB
:1021F00004F626304630863400F8FF98061DA637D0
:1022000030C63202EE0A20860100228800FAA63982
:10221000863C4638263804F606328634063500F801
:10222000FF98F41FA63730C63202EE0A208601005E
:10223000228800FAA639063D863C063A04F6863422
:10224000063500F8FF989A20A637063010C63202ED
:10225000EE08008601000638228800FAA639063DFD
:10226000863C04F686340635063000F8FF98FA20DE
:10227000A63710C63202EE0800860100228800FA56
:10228000A6390638063D863C04F600C180C200042B
:1022900020C2800000C000D001042154208AF6FF33
:1022A00004F646308634402820C1A0C20004A6A609
:1022B00020660100008A160028042A2A208680044D
:1022C000608AEAFF00C2FBFFA1C1008E100020CF90
:1022D00020C0A2CEA4CE21C0A6CE0A2AA0C1863C90
:1022E000463804F68634009C2C00408A2200A2A6C0
:1022F0002084208A120020C0A0CEA2CEA4CEA6CEDA
:1023000000C0A0C1008E0A0000C2F9FFA1C1028C6A
:10231000A1C1863C04F600860004608A20002028C3
:1023200020868004408A160020282764208A0E0018
:1023300020C1A028A6A620660100028804F400C2DD
:10234000FDFF84F44630663086340635009CC6FFB7
:10235000408A5200A0A62084E08A0C002154A0CE1E
:1023600000C0A0C1008E400030C6080240C1C22893
:1023700040C020C2200048CB22A740842A884C2A93
:1023800022CF24CF008E1000A4A700C186284C2A9B
:1023900020C2200008CB24CF20A7415420CF00C268
:1023A000F6FFA1C1028CA1C1063D863C66384638C5
:1023B00004F6463086340635009C5AFF408A4E00AB
:1023C000A2A62084008A3A0040C1C22820C2200070
:1023D00048A322CF4084248840C024CF40C048CBAB
:1023E00020A7414420CF52A7406601002688009CC8
:1023F0002600088C52A74066FEFF52CF40C04ACF4D
:10240000068CA0A62144A0CE00C0A0C1028CA1C110
:10241000063D863C463804F640A6C2A62229A028DE
:1024200000C032CE00C2800034CE04F610C60802CE
:1024300020C1A028B2A6206E0100B2CE05C02ACECF
:102440000E2A20CE162A22CE3CA601443CCE60C1E4
:10245000E0C2FEFFFF988A1310C6080220C1A02820
:1024600020A6E02822A6602904F646304028042849
:10247000009CD0FE608A10000086F6FF208A0C00C7
:10248000009CA8FF008EE6FF463804F6463804F6A6
:1024900000F82630009C0AFE2638A637063010C603
:1024A0003202EE08008601000638228800FAA639BA
:1024B00004F600F82630009C2AFE2638A63706309F
:1024C00010C63202EE08008601000638228800FAA3
:1024D000A63904F600F82630009CD6FE2638A6372A
:1024E000063010C63202EE08008601000638228847
:1024F00000FAA63904F6A63700F80630063206348C
:102500008634063572A6009C3AFE608A1400008666
:10251000F6FF008A180072CE00C2810074CE008ED1
:10252000480072CE00C2800074CE008E3C0010C6FF
:10253000080220C1A02805C02ACE0E2A20CE162AC5
:1025400022CE3CA601443CCE60C1E0C2FEFFFF9813
:102550008A1310C6080200860008008A260020C1DF
:10256000A02820A6E02822A6602930C63202EE0A62
:1025700020860100228800FA063D863C063C063A89
:10258000063800FCFF90EA1406328634063500F85F
:10259000A6C6000020C1B2A6206608002084208ABA
:1025A0009E0000C20019FF98741C408A8A0000191E
:1025B0000000A6C6000020C14018000000C060C294
:1025C000800C00C802046154208AF6FF0C2A20C245
:1025D0004C0028CA142A20C24E0028CAB2A6206E77
:1025E0000800B2CE00C020C2520028CA10C638026D
:1025F0000084008A0C00FF980E2A408A1400008E86
:102600000A002EA610EE380210EE3A02A0C1008E8B
:102610003400A42820C1B2A62066F7FFB2CE00C0C5
:1026200020C24C0028CA20C24E0028CA4018000010
:10263000FF98061D008E080000C2FCFF008E0400FB
:1026400000C2F6FFA1C1A63730C63202EE0A2086CC
:102650000100228800FAA639063D863C063A04F6B7
:1026600000C3DF0080C010C61C0200860100008A83
:1026700040001BC000D000C25B0000D000C233008D
:1026800000D000C24A0000D01BC000D000C25B00D6
:1026900000D000C2320000D000C24A0000D01BC0EF
:1026A00000D000C25B0000D000C2480000D0008E05
:1026B00004000CC000D000C24C0020A2C02800C200
:1026C0004E0020A2402920C060C2FFFF40A8410464
:1026D000008402886228214420860019608AECFF69
:1026E00000C24C0020A2C02800C24E0020A24029F7
:1026F0006086FFFF008A500040C0608650006A88F4
:10270000605650004144008EF0FF4144242840C0F0
:1027100060C040A841040084248800C2200000D08A
:10272000614460865000608AE8FF414442805888D6
:1027300010C61C0200860100008AD4FF0DC000D024
:102740000AC000D0008EC8FF10C61C02008601001F
:10275000008A360040C25200B0A34628EC0C414427
:102760000628EE08014406303BC080D020C25B0042
:1027700080D00428FF98580B20C23B0080D0063838
:10278000FF98580B20C2480080D004F610C63802CB
:102790000084008A2800FF98FC14408A200020C290
:1027A000500028A20084008A1400A02820C1B2A6EC
:1027B000206618002084008A0400FF98E42904F6AB
:1027C00010C638020084008A42006028FF98FC147A
:1027D000408A380050C020C2500028A20084008ADD
:1027E0002A00C02840C14EA60680008A0E00AC2AEE
:1027F000342B4154008A1400008EDAFFB2A6206602
:1028000018002084008A0400FF98E42904F60632A8
:102810008634063500F84028A6C6000020C1B2A6BE
:10282000206602002084008A20000428FF98FC14FF
:10283000408A1E00B2A6206618002084008A1A0072
:10284000FF98E429A0C1008E160000C2F6FF008E9A
:102850000C0000C2E4FF008E040000C2FDFFA1C115
:10286000A63730C63202EE0A20860100228800FA1E
:10287000A639063D863C063A04F60184608A620069
:102880004028415410C63A020084008A540020288F
:10289000FF98FC14408A4A0032A6006608000084B3
:1028A000008A3E0070C04084008A26006084008A4E
:1028B000300000C2500020A20084008A2400A0281A
:1028C00020C12EA60280008A180041546154008E57
:1028D000D4FF32A6006618000084008A0400FF9826
:1028E000E42904F68634EE0820C25200A8A30D8421
:1028F000008A78000A84008A7A000884008A92009C
:102900000784008A960006304628EC0C0628EE085C
:10291000F20C2428E00CE00C4240404020C24C0065
:10292000A8A22440C22820C24E00A8A242290638EC
:1029300040D00628EE08014400865000608A22003C
:1029400000C04628EC0C4144408650006888FF983F
:10295000A62940C24F006428F20EF20E6068008E75
:102960003A00606600FF6068008E3000606600FF1D
:10297000008E28004628EC0C4144408650006888B0
:10298000FF98A62940C24F006428F20EF20E008E76
:102990000A000628EE0800840288615420C2520012
:1029A000A8CB863C04F620C24C0028A2C02820C236
:1029B0004E0028A24029401800005F045F04520422
:1029C00060C2B01840A800D0010441046154208ABC
:1029D000F2FF00C060C2500000D001046154208AA0
:1029E000F6FF04F62EA610EE3802FF98F20C32A67F
:1029F000006610002C8800C0FF98A61BFF98602678
:102A000004F620C2240028A2FF98A61B04F64A2A36
:102A100010C63802FF98FC14408A180060C25000AB
:102A200038A2008422880A2A38CBA42820C138CAB8
:102A3000A0C104F6A42820C1A1C104F660C25000C0
:102A400038A20084008A32000A802E8800C010EE6E
:102A5000380210EE3A02008E1C00C02840C150C05F
:102A600058A20A800C88C0284154208AF2FF008EA8
:102A7000040038A258CA00C038CA04F630C61C0286
:102A8000208601000E8800860008408A280040C287
:102A900030000A8C00860002408A1A005CC02028A0
:102AA000E00AEC0A2440222900667F00EA08E008D8
:102AB000A02800C004F400C2E0FF84F4009CBCFF26
:102AC000408A160040C2000120A000C8A2448244EF
:102AD0004154208AF2FF00C0A0C104F6009C9CFF74
:102AE000408A160040C2000100A020C88244A244CF
:102AF0004154208AF2FF00C0A0C104F60086000104
:102B0000408A1A002028E00AEC0A2046FC0022290C
:102B100000667F00EA08E008A02800C004F400C2B4
:102B2000E0FF84F4009CD4FF408A160040C20001FC
:102B300020A000C8A24482444154208AF2FF00C071
:102B4000A0C104F610C61C02EE0800860200208A0E
:102B50000E0001C0009C4AF7408A060010EE3402C5
:102B600004F4D2024028063410C63402009CFAF85D
:102B7000408A1C00063C042821C0009C4E004028CE
:102B8000A63710C63402009C28F8A639042804F69B
:102B9000063C00C2E0FF84F44028063410C634022C
:102BA000009CC6F8408A1C00063C042822C0009CF9
:102BB0001A004028A63710C63402009CF4F7A63944
:102BC000042804F6063C00C2E0FF84F420C3DA00C7
:102BD0004C2A4056E002F00CE20CE20CA4C020C9E2
:102BE000A6C020C840C0A8C020C9482AAAC020C981
:102BF000502AACC020C941C0AEC020C9A0C0A0C8E6
:102C0000B0C020A140860000248800C004F400C2A7
:102C1000E0FF84F466300634063010C61C02EE086D
:102C200000860200208A540010C63402009C3AF844
:102C3000408A48000638063C0634063020C3DA00D5
:102C4000A4C020C8282AAAC0A0C8302AACC0A0C8E6
:102C500021C0B6C0A0C8B0C020A1463010C6340202
:102C6000009C4EF746380638063C66384086000021
:102C7000248800C004F400C2E0FF84F40638063C57
:102C8000663800C2FDFF84F4063010C61C02EE0850
:102C900000860200208A400010C63402009CCAF759
:102CA000408A34000638063020C3DA00A4C020C8A9
:102CB00022C0B6C0A0C8B0C020A1463010C63402A1
:102CC000009CEEF64638063840860000248800C096
:102CD00004F400C2E0FF84F4063800C2FDFF84F46F
:102CE000063410C61C02EE0800860200208A480046
:102CF00010C63402009C72F7408A3C00063C063441
:102D000020C3DA00282AAAC0A0C8302AACC0A0C8B4
:102D100023C0B6C0A0C8B0C020A1463010C634023F
:102D2000009C8EF64638063C40860000248800C091
:102D300004F400C2E0FF84F4063C00C2FDFF84F40A
:102D40000630063410C61C02EE0800860200208AF7
:102D5000520010C63402009C10F7408A4600063C20
:102D600006380630063420C3DA00282AAAC0A0C8D4
:102D7000302AACC0A0C8AEC020C824C0B6C0A0C80D
:102D8000B0C020A1463010C63402009C24F646385C
:102D9000063C063840860000248800C004F400C2C7
:102DA000E0FF84F4063C063800C2FDFF84F40634DC
:102DB00010C61C02EE0800860200208A480010C6D9
:102DC0003402009CA4F6408A3C00063C063420C332
:102DD000DA00282AAAC0A0C8302AACC0A0C825C0E2
:102DE000B6C0A0C8B0C020A1463010C63402009CB6
:102DF000C0F54638063C40860000248800C004F434
:102E000000C2E0FF84F4063C00C2FDFF84F40630FB
:102E1000063410C61C02EE0800860200208A52000A
:102E200010C63402009C42F6408A4600063C063832
:102E30000630063420C3DA00A4C020C8282AAAC05D
:102E4000A0C8302AACC0A0C826C0B6C0A0C8B0C0B8
:102E500020A1463010C63402009C56F54638063C88
:102E6000063840860000248800C004F400C2E0FF59
:102E700084F4063C063800C2FDFF84F406300634B4
:102E800010C61C02EE0800860200208A520010C6FE
:102E90003402009CD4F5408A4600063C06380630D1
:102EA000063420C3DA00A4C020C8282AAAC0A0C8BB
:102EB000302AACC0A0C827C0B6C0A0C8B0C020A1EE
:102EC000463010C63402009CE8F44638063C06380A
:102ED00040860000248800C004F400C2E0FF84F4AF
:102EE000063C063800C2FDFF84F46630063410C686
:102EF0001C02EE0800860200208A6C0010C6340214
:102F0000009C66F5408A6000063C063420C3DA0067
:102F1000282AAAC0A0C8302AACC0A0C828C0B6C001
:102F2000A0C8AEC0A0A0B0C020A12630463010C6B8
:102F30003402009C7CF446382638063C66384086CD
:102F40000000208A0400022804F440860800268835
:102F500000C2E4FF84F440860900268800C2FDFF19
:102F600084F400C2E0FF84F4063C663800C2FDFF32
:102F700084F466300634063010C61C02EE08008663
:102F80000200208A5C0010C63402009CDCF4408AF7
:102F900050000638063C0634063020C3DA00282AE2
:102FA000AAC0A0C8302AACC0A0C8AEC020C829C0E2
:102FB000B6C0A0C8AEC0A0A0B0C020A12630463088
:102FC00010C63402009CEAF3463826380638063C20
:102FD0006638408600002488022804F400C2E0FF1E
:102FE00084F40638063C663800C2FDFF84F466307F
:102FF00010C61C02EE0800860200208A380010C6A7
:103000003402009C64F4408A2C0020C3DA002AC0F9
:10301000B6C0A0C8B0C020A1463010C63402009C83
:1030200090F34638663840860000248800C004F4D7
:1030300000C2E0FF84F4663800C2FDFF84F420C1C2
:10304000A0C2600240C2C00000C020C8A2444154D7
:10305000208AF6FF00C010EEEE0300C2FF0010EE63
:103060007A0200C2242B10EE7C0200C2FF0010EE98
:10307000BA0200C2BC2A10EEBC0200C2FF0010EE71
:10308000BE0200C2DC2A10EEC00200C2FF0010EE39
:10309000FA0210EE3A0310EE7A0310EEBA0300C201
:1030A000642B10EEFC0210EE3C0310EE7C0310EEDD
:1030B000BC0300C2FF0010EEFE0210EE3E0310EE55
:1030C0007E0310EEBE0300C2982B10EE000310EE3C
:1030D000400310EE800310EEC003009C960500C074
:1030E000009C2E0001C0009C280010C61C02EE08A7
:1030F00000860200208A180002C0009C140003C051
:10310000009C0E0004C0009C080005C0009C02004A
:1031100004F6663060C2FFFF70EEE40360282028EA
:10312000F20AE00AE00A2046600240C1C2285AA61C
:10313000DCA640284268008AD0012029A22800C1CC
:1031400080C200BC00C0209E408AC60110C6FEBDE1
:10315000008655AA208AC20110C636BC00864641A8
:10316000208AB60110C638BC00865431208AAA01D4
:1031700010C63ABC00863620208A9E0110C63CBC90
:1031800000862020208A920118C60BBC38C60CBCD1
:10319000EA0A026842CE18C60DBC44CE10C60EBC68
:1031A00046CE48CE10C616BC4ACE18C611BC38C68C
:1031B00012BCEA0A2068CECE58C610BC4084008AF1
:1031C00058014384408A52014AA64184008A020081
:1031D000E00848A704404CCE2F44F00A024050CEED
:1031E00018C613BC38C614BCEA0A02680084208AD8
:1031F0000E0010C620BC30C622BC52CED4CE068CE7
:1032000052CE20C0D4CED4A62084208A3C0052A620
:10321000D0A60250C4A62184008A32002284008AEB
:1032200010002484008A10002884008A1200008E76
:103230001C00E208008E1600E208E208008E0E0074
:10324000E208E208E208008E040000C2FFFF56CE4A
:1032500020C0D8CE00C23200C0CA18C625BC006645
:10326000010041D600C180C22BBC20C22200C81A76
:1032700000004BC000A820D08144A1444154208AC2
:10328000F2FF4CA600C180C200BC009C9600408AA0
:103290006E0040C00428F208E008004600BC00C1EF
:1032A000802880A82066FF002084008A52002086A3
:1032B000E500008A42008B4480A82066FF0020863B
:1032C0000F00008A320020660800008A2A000428C5
:1032D000F208E008004600BC00C1802820C222009D
:1032E000C81A00004BC000A820D08144A14441541A
:1032F000208AF2FF008E080041445084608A94FFC7
:1033000001C040D600C0A0C1168C00C2DFFFA1C121
:103310000E8C00C2E0FFA1C1068C00C2FDFFA1C15E
:10332000663804F6DAA65CA7A228A468008A08001A
:103330002229A428209E04F600C2DFFF84F4DEA622
:1033400040C2200050A3A228A468008A08002229B5
:10335000A428209E04F600C2E2FF84F400C180C2CB
:1033600000BC00C020C2000100C882442154208A51
:10337000F6FF04F430C61C02EE0A20860200208A02
:1033800022000056020020C3DA00A4C020C843C0B7
:10339000A0C020C9B0C020A1408600002688AEC0D1
:1033A00020A004F400C2E0FF84F40584608A460093
:1033B00020C201FF0280408A3C00202840C2380021
:1033C000D01A000020860104468840C22000048CE8
:1033D00040C2000120C9F00C042842284046FF00EA
:1033E000EA0CEE0C4084228841C004400144028073
:1033F000408A020004F400C2FDFF84F46630063502
:1034000060C2FFFF70EEE40300860000008A4A02FB
:1034100000860600408A3802602806342028F20A16
:10342000E00AE00A2046600240C1C228608601002E
:10343000208A380020C2000848C00BC070C61C0299
:10344000EE0E60860100288820C2000242C005C03E
:1034500061C00630263000C23800C01A000020C209
:103460002000A0C826380638008E2E000628009CB2
:1034700002FF408A0C00009C30FF408A1000008E42
:103480001800063C00C2E0FFA1C1008EE001063C2E
:1034900000C2DFFFA1C1008ED401063000C230009F
:1034A000C01A0000A0CE22CF063824CEA6CF009CA2
:1034B000AAFE00C2EB3C10EE00BC00C2900018EE69
:1034C00002BC00C24B0018EE03BC00C2310018EE73
:1034D00004BC00C2360018EE05BC00C22D0018EE78
:1034E00006BC00C24B0018EE07BC00C24F0018EE2D
:1034F00008BC00C2530018EE09BC00C2200018EE40
:103500000ABC00C018EE0BBC02C018EE0CBC01C017
:1035100018EE0DBC01C010EE0EBC01C018EE10BCC0
:1035200000C23800C01A000020A018EE11BC2028EC
:10353000EA0AEE0A38EE12BC00C23000C01A0000DF
:10354000A0A638EE13BC0228EA0818EE14BC00C28C
:10355000F80018EE15BC22A750EE16BC00C2800081
:1035600018EE24BC00C2290018EE26BC10C60002CA
:1035700018EE27BC2028EA0A38EE28BC10C6000244
:1035800000465A5A18EE29BC2028EA0A38EE2ABC0E
:10359000863C00C180C22BBC0BC020A900D1A14435
:1035A00081440154208AF2FF00C2464110EE36BC2D
:1035B00000C2543110EE38BC00C2362010EE3ABCC6
:1035C00000C2202010EE3CBC00C255AA10EEFEBD89
:1035D00000C180C200BC00C0009C62FD408A840023
:1035E000009C78FD00C2F8FF10EE00BC00C2FFFF97
:1035F00010EE02BC00C180C200BC01C0009C3EFDB8
:10360000408A6000009C54FD00C23400C01A0000D3
:10361000A0A142C046805A8800C180C200BC0428D4
:103620004630009C18FD4638408A38004144008EE0
:10363000E2FF009C3E0000C23600C01A000020A03D
:10364000009CCEFA408A200000C0A0C1008E1E005F
:1036500000C2DFFFA1C1008E140000C2E2FFA1C1C1
:10366000008E0A00008E060000C2FDFFA1C1063DCB
:10367000663804F600C2FFFF10EEE00310EEE4032C
:1036800010EEE80300C018EEE20304F418C6E203EB
:103690000084008A2C00063518C6E3030066FF008C
:1036A000FF98CA5B408A220010C6E00300C180C2B6
:1036B00000BE009C88FC408A0C00063D00C018EE4D
:1036C000E20300C004F4063D84F4063D00C2E0FFBE
:1036D00084F406302630009CB2FF408A240026384D
:1036E000063810EEE00338EEE30300C180C200BEEE
:1036F000009C30FC408A100000C018EEE20300C0BD
:1037000004F42638263804F600C2FFFF10EEE0036A
:1037100000C2E0FF84F44028EE0CE00CEC08C8A6E0
:10372000204010C6E0030280288818C6E303068004
:103730001088022826284630009C96FF4638408A8A
:103740000A0000C180C200BE10A204F484F4263036
:1037500006304028EE0CE00C2028EC0A48A6204059
:1037600010C6E0030280288818C6E303068010888C
:10377000022826284630009C58FF4638408A16000A
:103780000638263800C180C200BE90CA01C018EEBB
:10379000E20300C004F44638463804F622C056A6B8
:1037A000004602002080408A4C0026300228009CFF
:1037B00064FF408A3C0000860000088826382144C7
:1037C000008EDAFF0638063020C2FFFF009C7EFF25
:1037D000408A1A0040C23200D0A220840A8840C227
:1037E0003000D0A22154D0CA0638A0C104F6263831
:1037F00004F6263804F600C2E1FF84F4463020C007
:10380000009C4AFF4638408A1E000630263000C21F
:103810003200C0A220840A8800C23000C0A2214425
:10382000C0CA26380638A0C104F600C010EEF60360
:1038300002C010EEF40356A60046020010EEF80394
:1038400010C6F40330C6F8030280408A2600009CAC
:10385000C4FE408A2600008600002A8810C6F603AF
:10386000014410EEF60310C6F403014410EEF40315
:10387000008ECCFF10C6F603A0C104F604F600F8D3
:103880006630063486346028FF98CA5B408A3A0066
:1038900020C2320048A20084008A080020C2300002
:1038A00048A2168CFF982A38408A1E0020C2300099
:1038B00048CA20C2320041C048CBD6A644A7F20C69
:1038C000F20CE00CA0C1008E0200A1C1A637263088
:1038D00030C63202EE0A20860100228800FA26381D
:1038E000A639863C063C663804F62028208602006D
:1038F000608A3E002086F8FF408A36000228263083
:10390000009C12FE408A2400402826380228009C91
:10391000EAFE408A1E0024282086F8FF408A120012
:1039200020860200608A0A00008ED0FF2638008EB2
:10393000020004F400C2E0FF84F400860200608A02
:10394000180000560200C4A62184068800C2FDFFAC
:1039500084F4D0A60240A0C104F600C2FDFFA1C1BC
:1039600004F600F8463086342630009C8EFAA637DE
:10397000063010C63202EE080086010006382288A2
:1039800000FAA6392638863C463804F600F8263078
:10399000463066308634009CC419408ACC006028CA
:1039A00030EE72050628009C2022408ABC005EA6EC
:1039B00020C22000C8A20268288800C2E2FF008E50
:1039C000A80010C6720510EEEE03009C5612608A25
:1039D0008E000086E4FF208A9000009CBEFD408A95
:1039E0008800063030C67205009C8A08408A5A005A
:1039F00010C6720510EEEE0300C180C2EE04009CFA
:103A0000560E408A44000084208A1A0000C180C2F9
:103A1000A2052638263010C040C0009C6A09408AA2
:103A20002800008E1A00009CA21300C180C2A205CB
:103A30002638263010C040C0009C9614408A0A00E8
:103A4000263800C0A0C1008E200006300638263877
:103A500006300228009CA4FD0638A1C1008E0A0091
:103A600000C2E3FFA1C1008E0000063000C010EECE
:103A7000EE030638A637063010C63202EE0800867E
:103A800001000638228800FAA639863C6638463896
:103A9000263804F600F8663086340635009CB218E5
:103AA000063D863CA637063010C63202EE08008678
:103AB00001000638228800FAA639663804F600F8B4
:103AC00026304630663086340635009C4C1A063D5A
:103AD000863CA637063010C63202EE08008601008A
:103AE0000638228800FAA63966384638263804F6A1
:103AF00000F82630463066308634009C2000863C34
:103B0000A637063010C63202EE08008601000638DD
:103B1000228800FAA63966384638263804F6063573
:103B2000009C3A18408AA200602830EE72050628F0
:103B3000009C9620408A92005EA620C22000C8A267
:103B40000268288800C2E2FF008E7E0010C672055F
:103B500010EEEE03009CCC10408A6E0020282F64EB
:103B6000F20AE00A204600BC00C182280BAE0066C3
:103B70001000288800C2DCFF008E4E001AA610EE4E
:103B8000CC040284488800C2FDFF008E3C0010C6B1
:103B9000CC04009C4400408A300010C6CC04009C39
:103BA00048FD408A2400009CE2FA408A1C0010C6AE
:103BB000720510EEEE03009CB814408A0C0000C0A1
:103BC00010EEEE03063DA0C104F6063000C010EE74
:103BD000EE030638063DA1C104F610EEEE0300C068
:103BE00020C1A0C25205009C8002408A5A000630C3
:103BF00000C180C2520580A82066FF002086000018
:103C0000008A38002086E500008A2A0020862E00DF
:103C1000008A22008BAE2066FF0020860F00008AFB
:103C20001400422840660800208A0A00063800C2B4
:103C3000DBFFA1C104F60638008EA4FF063800C0E1
:103C400010EEEE03A0C104F60086DEFF2488008E8D
:103C5000ECFF063000C010EEEE030638A1C104F6FA
:103C600000C2A65C04F600C004F66630863400C2CA
:103C700020002BC020D0A1442154208AF6FF863C8E
:103C8000863460C000A80066FF00008A54000086E9
:103C90002E00008A1800009C7600408A6600688426
:103CA000408A600038D261448144008ED6FF60842F
:103CB000008A5000814468C000A80066FF00008AA6
:103CC0002A0000862E00008A3A00009C4200408AAA
:103CD00032006B84408A2C0038D261448144008ECB
:103CE000D6FF6084008A1C00008E0000863C20A85D
:103CF0000066FF000086E500008A0A0000C0A0C13F
:103D0000663804F6863C00C2FDFFA1C1663804F6A1
:103D100000862000608AA60000867F00008A9E0040
:103D200000862000008A960000862E00008A8E0001
:103D300000862200008A860000862A00008A7E0013
:103D400000862B00008A760000862C00008A6E0018
:103D500000862F00008A660000863A00008A5E0016
:103D600000863B00008A560000863C00008A4E0018
:103D700000863D00008A460000863E00008A3E0024
:103D800000863F00008A360000865B00008A2E0015
:103D900000865C00008A260000865D00008A1E0006
:103DA00000867C00008A160000866100608A0C0094
:103DB00000867B00408A04000056200004F400C204
:103DC000FDFF84F4663040C028C06228615418AA00
:103DD0000066FF0000862000208A0A002154208A05
:103DE000E8FF008E0200422860C02BC00228015468
:103DF0000884608A180000AA0066FF000086200080
:103E0000208A06002154008EE2FF6228685420C0F8
:103E10002480408A0A0008AA28D22144008EF0FF9C
:103E20006084008A200000C22E0028D2214440C0B5
:103E30004680408A10000428084400AA28D2214461
:103E40004144008EEAFF00C028D20228A0C1663893
:103E500004F640AE0066FF00008A040000C004F4CF
:103E600000C2DFFF84F400C004F4663086342028EA
:103E7000F00A40284F6410C6EE030084208A140024
:103E80004EA60F44F0082080408ACE004CA6024087
:103E9000008E42004630263050C6EE032084008A51
:103EA000260026300428009C6CF82638408AB4008E
:103EB0000086F7FF008AAC000086F8FF408AB40055
:103EC00040282154008ED4FF0428009C6CFA408ABC
:103ED0009200263846382630463050C6E4034080EB
:103EE000288858C6E6034680168810EEE40378EE6C
:103EF000E60300C180C200BC009C28F4408A440054
:103F0000463826380428F208E008004600BC863C03
:103F1000863400C1802800C22000011321170154FB
:103F2000208AF6FF482A405600BCF00CE20C508470
:103F3000608A040040C021440228F2080468863CDC
:103F4000663804F400C2FFFF10EEE403463826385A
:103F5000863C663800C2E0FF84F4863C663800C2C6
:103F6000DEFF84F426384638863C663800C2E0FF1F
:103F7000A1C104F626384638863C663800C2DEFF0A
:103F8000A1C104F620C030EE9E0530EE9C05009CD9
:103F9000D8FE408A4A00A0A82066FF00008A3A00A6
:103FA0002086E500008A28004BC0B0AA2066FF00EA
:103FB00020860F00008A100020660800208A10006A
:103FC000009C960AA0C104F6009C4C09008EBEFF1E
:103FD00040C050EE9E05008EB4FF00C2DEFF84F4A8
:103FE00084F46630063420C010C6EE030084208AB4
:103FF00014004EA60F44F0082080408AF2004CA620
:104000000240008E3E00263050C6EE032084008A17
:10401000260026300428009CFCF62638408AF20050
:104020000086F7FF008AEA000086F8FF408AF00069
:1040300040282154008ED4FF0428009CFCF8408ABC
:10404000D0002638263050C6E4034080288858C661
:10405000E6034680168810EEE40378EEE60300C11E
:1040600080C200BC009CBCF2408A9000263840C050
:104070000428F208E008004600BC20C1A02820A8BF
:104080000066FF0000860000008A64000086E500EC
:10409000008A4E000BC020AA0066FF0000860F00B9
:1040A000008A3E0000660800208A3600063C06347E
:1040B000263046302BC001120066FF0021134066F7
:1040C000FF000480208A16002154208AE8FF463829
:1040D00026380228F2080468063C663804F446389C
:1040E000263841445084608A86FF2144008EF8FEC1
:1040F000063C663800C2E4FFA1C104F600C2FFFF1F
:1041000010EEE4032638063C663800C2E0FFA1C189
:1041100004F62638063C663800C2E0FFA1C104F66A
:104120002638063C663800C2E4FFA1C104F610C67A
:10413000EE030084208A1C004EA60F44F008208065
:10414000408A08004CA60240A0C104F600C2DEFF6F
:10415000A1C104F62630463050C6EE032084008A02
:10416000260026300428009CACF52638408A2A0018
:104170000086F7FF008A22000086F8FF408A2600AA
:1041800040282154008ED4FF0428009CACF7408ABC
:10419000080046382638A0C104F64638263800C242
:1041A000E0FFA1C104F64638263800C2DEFFA1C1F7
:1041B00004F650C6EE0304284630009C58F54638F5
:1041C000408AAE000086F7FF008AA2000086F8FF52
:1041D000408A06004028008EDCFF46300428009C00
:1041E00058F7408A8200063000C180C200BC009CA3
:1041F00032F1408A700020C1A0C200BC30C020A8AB
:104200000066FF0000860000208A060000C2E5006C
:1042100020D0A04620002154208AE2FF063800C1A9
:1042200080C200BC009C16F1408A3C00009C6CF5EA
:10423000408A340026380630022826382630009C72
:104240000CF5408A2200009C12F10638009CEAF628
:10425000408A1E0000C180C200BC009CE0F0408A81
:104260001000A0C104F626382638A1C104F600C209
:10427000E0FFA1C104F66630AC2AA0463000342B22
:1042800020CEA2CE009CB2F6408ABC00AC2AA0464A
:104290003400342B20CE009CC2F020C1A0C200BC50
:1042A00000C22E00211600C220004AC0211641542F
:1042B000208AF8FF10C02116009C9A00AC2AA04664
:1042C0003000342B20A620C1A0C200BCBA4420C8B4
:1042D000A24400C020C8A24420C820C1A0C200BC83
:1042E000A046200000C22E002116211600C2200088
:1042F00049C021164154208AF8FF10C02116009CA5
:104300005400AC2AA0463200342B20A620C1A0C203
:1043100000BCA0462000BA4420C8A24400C020C867
:10432000A24420C8AC2AA0463400342B20A600C1E9
:1043300080C200BC009C06F0408A1600009C160259
:1043400000C0A0C1663804F600C2FDFF6638A1C1F6
:1043500004F6663804F600C021162116009C06F902
:1043600020C8A244009CF8F820C8A24420C8A24457
:1043700000C020C8A244009CECF820C8A244009CC5
:10438000DEF820C8A24404F666300634AC2AA04603
:104390003000342B20CEA2CE24CF20C0009C8EFD36
:1043A000408A8800263000C180C200BC009C74EFA7
:1043B000408A7600263840C00428F208E00800460B
:1043C00000BC20C1A02820A80066FF0000860000D5
:1043D000008A16000086E500008A0E0041445084E1
:1043E000608AD4FF2144008EB2FF063C063426309A
:1043F000009C7A002638009C34FD408A620006301A
:1044000000C180C200BC009C34EF408A58000638CE
:1044100010EEE40378EEE60300C2FFFF10EEE803BF
:1044200000C0A0C1063C663804F626380086DEFFD0
:10443000208A220010C6EE030084008A180026306D
:10444000009C6EFD2638408A0400008E4EFF063C1C
:104450006638A1C104F6063C663800C2E1FF84F468
:10446000063C663804F62638063C663804F60BC06F
:1044700000A920D18144A1440154208AF2FF8C2A52
:1044800080463000142B00A620D0A14400C020D0CC
:10449000A14420D0A144009CCCF720C8A244009C99
:1044A000BEF720C8A24420C8A24400C020C8A2442D
:1044B000009CB2F720C8A244009CA4F720C8A244E4
:1044C00002A620C8A24404A620C8A24400C020C856
:1044D00004F6AC2AA0463E00342BA0A82066FF00BC
:1044E0000240F208E008004600BC20C1A02804F603
:1044F0000634009CECFA408A58002028F00A402834
:104500004F640428F208E008004600BC20C1A0283F
:1045100000C2E50020D0009C14FC408A2A0006302E
:1045200000C180C200BC009C14EE408A1E00063808
:1045300010EEE40378EEE60300C2FFFF10EEE8039E
:1045400000C0A0C1063C04F6063C04F62638063C32
:1045500004F6063C04F600C2FFFF10EEE40304F686
:1045600000C018EEB90520C02B84408A140000C298
:10457000200020C1A0C2AE05A24020D02144008E60
:10458000E6FF00A80066FF0000862000008A0C00FD
:1045900000862E00008A0400008E0C0001C018EE78
:1045A000B9058144008EDAFF00C2FFFF10EEBA05A4
:1045B00020C008AA0066FF000084008A120000865E
:1045C0002E00208A040030EEBA052144008EE2FF5E
:1045D00030EEBC0550C6BA054086FFFF208A0400B5
:1045E00050C6BC0520C060C02480408A460008AA8E
:1045F0000066FF00214400862000008A2C0000860F
:104600002E00008A2400009CA8006884408A1000C4
:1046100020C1A0C2AE05A64020D06144008EC8FFD4
:1046200001C018EEB905008EBEFF01C018EEB90535
:10463000008EB4FF6084208A120000C25F0020C197
:10464000A0C2AE0520D001C018EEB90510C6BA054B
:104650000086FFFF008A4E002028214450C6BC057A
:1046600068C02480408A3E0008AA0066FF002144FA
:1046700000862000008A2400009C36006B84408A5B
:10468000100020C1A0C2AE05A64020D06144008E1B
:10469000D0FF01C018EEB905008EC6FF01C018EEAC
:1046A000B905008EBCFF18C6B9050066FF00A0C1A1
:1046B00004F600866100608A180000867B00408A4C
:1046C0001000063001C018EEB9050638005620006B
:1046D00004F6009C3AF6608A0A0001C018EEB9059B
:1046E00000C25F0004F620C02B84408A140000C280
:1046F000200020C1A0C2A205A24020D02144008EEB
:10470000E6FF20C02884408A1C0000C180C2AE059C
:10471000824000A80066FF0000862000008A060094
:104720002144008EDEFF263060C000C04086640059
:10473000608A0A00405664000144008EEEFF008447
:10474000008A0E000046300020C1A0C2BE0520D065
:10475000614400C04A84608A08004A540144008EC3
:10476000F2FF0084208A06006084008A140006306C
:104770000046300020C1A0C2BE05A64020D0614442
:10478000063804280046300020C1A0C2BE05A6405D
:1047900020D0614426384628414408C00450208077
:1047A000608A0200202840C04280408A1A0000C16E
:1047B00080C2AE05844000A820C1A0C2A205A440CA
:1047C00020D04144008EE0FF00C27E0020C1A0C284
:1047D000A205A44020D0414420C02680408A1C006D
:1047E00000C180C2BE05824000A820C1A0C2A205AF
:1047F000A44020D021444144008EDEFF28C02B84F9
:10480000408A1A0000C180C2AE05824000A820C1C3
:10481000A0C2A205A24020D02144008EE0FF04F6F1
:10482000063400C020C02B84408A28004028E20CB7
:10483000602861646084008A0400406E8000622801
:1048400098AB6066FF0046404066FF0004282144A4
:10485000008ED2FF063C04F678EEC205063420C175
:10486000A0C2A205009C02F4408A1200063C009CF3
:10487000760078C6C2056066FF00A0C104F6063C5B
:10488000009CDCFC41C04630009C5AFE78C6C20544
:104890006066FF0000C180C2A205009C44F7608AE8
:1048A00018000086E0FF008A2C00463878C6C20552
:1048B0006066FF0001C0A0C104F64638414440864E
:1048C000E803608AC0FF78C6C2056066FF0000C2C8
:1048D000E1FFA1C104F6463878C6C2056066FF0054
:1048E00000C2E0FFA1C104F6063400A80066FF0084
:1048F0000084008A1C0000866100608A0E00008629
:104900007B00408A0600063C01C004F60104008ECC
:10491000D8FF063C00C004F606306630A0A820662A
:10492000FF004228406640004084008A3E00422842
:1049300040661F004084008A120143840488408A34
:104940000A0150EE9E054DC030AB4066FF0050EEB0
:10495000A00500C180C27C0540C2200020C080D0DC
:1049600001044154208AF4FF008E2E0050C69E059B
:1049700040860080408AD400022800661F00048020
:10498000208AC8000DC020AA0066FF0050C6A005FE
:104990004066FF000480208AB200A0A820661F00A5
:1049A00021540228E00AE00A4228E00A244020407C
:1049B000622800C180C27C05824020C02D84408ACC
:1049C00066002584608A12002B84608A16004228C3
:1049D0004B54E00C5C44008E12004228E00C414431
:1049E000008E080042284554E00C4E4430AA006670
:1049F000FF004144063030AB4066FF004084208A0F
:104A00000C0006380084008A1E00008E060006385E
:104A1000008E380060861F00408A300000D00104FC
:104A200061442144008E94FFA0A820661F002184C9
:104A3000208A0C0020C2008030EE9E05008E060009
:104A4000215430EE9E056638063804F620C2FFFF7A
:104A500030EE9E056638063804F60630663020C013
:104A600030EE9C0550C69E0540860080208A680076
:104A700000C020C02B84408A28004028E20C602817
:104A800061646084008A0400406E80006228B8ABD4
:104A90006066FF0046404066FF0004282144008E07
:104AA000D2FF50C6A0054066FF000480208A28007F
:104AB00000C180C27C0520C020861F00408A1400EF
:104AC00000A80066FF000084008A08000104214459
:104AD000008EE4FF30EE9C056638063804F606309A
:104AE0002084008A0400006E400020C1A0C2AE05F0
:104AF00020D00FC0A0C2B90520D000C0A0C2BA0506
:104B000020D00428A0C2BB0520D000C0A0C2C80588
:104B100020D0A0C2C90520D0063801546028E00E7C
:104B2000E00E4628E00E6440604020C02D84408A9C
:104B30007E002584608A12002B84608A1600422839
:104B40004B54E00C5C44008E12004228E00C4144BF
:104B5000008E080042284554E00C4E4420C1A0C2FB
:104B6000AE05A4400628024050C69C050480608A19
:104B70001600008A2C0000C2FF0020D0A14400C211
:104B8000FF0020D0008E220000C180C27C05804042
:104B900000A80066FF0020D0A14400C020D0008EF5
:104BA000080000C020D0A14420D02144008E7CFF0A
:104BB00004F626304630863440C000C180C2EE0480
:104BC000844000A80066FF0000866100608A0C0037
:104BD00000867B00408A04000056200020C1A0C24D
:104BE0007C05A440A0A82066FF0020866100608AA2
:104BF0000C0020867B00408A0400205620000280A2
:104C0000208A16000084008A06004144008EAAFF14
:104C1000863C46382638A0C104F6863C46382638FD
:104C2000A1C104F6663000C010EE9E0510EE9C0592
:104C300020C010C6EE030084208A14004EA60F4444
:104C4000F0082080408A4E014CA60240008E3E00B3
:104C5000263050C6EE032084008A26002630042821
:104C6000009CB2EA2638408A4A010086F7FF008A93
:104C700042010086F8FF408A460140282154008EF8
:104C8000D4FF0428009CB2EC408A28012638263044
:104C900050C6E4034080208A0A0058C6E6034680D6
:104CA000008A160010EEE40378EEE60300C180C22D
:104CB00000BC009C6EE6408AE600263840C004280E
:104CC000F208E008004600BC20C1A02820A8006629
:104CD000FF0000860000008ABC000086E500008A14
:104CE00092000BC020AA0066FF0000860F00008A19
:104CF000720000660800208A7A0026304630009C48
:104D000058FD4638263810C69C050084008A0800E5
:104D1000009C9EFE608A740018C61B050066FF009A
:104D20000084008A300000C180C20E052630463063
:104D30002BC001120066FF0021134066FF000480B3
:104D4000208A0E002154208AE8FF46382638008E3B
:104D50003A004638263800C010EE9E0510EE9C053D
:104D6000008E1A0026304630009CACFB46382638B0
:104D7000008E0A0000C010EE9E0510EE9C05414416
:104D80005084608A38FF2144008EA6FE0228F20873
:104D90000468663804F4663800C2E4FFA1C104F672
:104DA00000C2FFFF10EEE4032638663800C2E0FFC1
:104DB000A1C104F62638663800C2E0FFA1C104F69E
:104DC0002638663800C2E4FFA1C104F600C180C2E3
:104DD000EE0420C1A0C27C0520C000A80066FF0030
:104DE00020D00084008A0A008144A1442144008E1E
:104DF000E8FF30EE9C0504F6AC2AA0463600342BC2
:104E000020D020C0AC2AA0463800342BA0C8009C7B
:104E10001CF3408A8200263000C180C200BC009C86
:104E200002E5408AA600263820C040C00228F208C9
:104E3000E008004600BC20C1A02820A80066FF00B2
:104E40000086E500008A0E0000860000008A060049
:104E500040C0008E2A004144AC2AA0463600342BC4
:104E600020A80066FF004080608A14000154422898
:104E70004050AC2AA0463800342BA0A0A0C104F6B4
:104E800021443084608AA4FFAC2AA0463800342B29
:104E9000A0A02144008E6CFF0086DEFF208A240043
:104EA00010C6EE030084008A1A00009C04F3408AB6
:104EB0000E00AC2AA0463800342BA0A0008E44FF80
:104EC000A1C104F600C2E1FFA1C104F62638A1C1C8
:104ED00004F6AC2AA0463000342B20CEA2CE24CF3C
:104EE000AC2AA0463700342BA0D100C180C2A20555
:104EF000009C2CF90066FF00AC2AA0463A00342B37
:104F000020D010C69C050C4420C00D84608A080087
:104F10000D542144008EF2FFAC2AA0463B00342BF6
:104F2000A0D002280144AC2AA0463700342BA0A907
:104F30006066FF00009CC0FE408A2001AC2AA046AB
:104F40003C00342BA0C8AC2AA0463E00342B20D114
:104F500000C0AC2AA0463F00342B20D08C2A8046CB
:104F60003F00142B00A80066FF008C2A80463B00FF
:104F7000142B80A82066FF0002800488408A7600F7
:104F8000008A460006304228405020C00084208A13
:104F9000020021C00428AC2AA0463A00342B20A9E4
:104FA0004066FF00009C36FB0638009C24F500C1DB
:104FB00080C2AE0540C2200080A8A0D00104A14458
:104FC0004154208AF2FF008E0E00009C04F500C1BF
:104FD00080C2A205009C96F48C2A80463F00142BC8
:104FE00000A80066FF000144AC2AA0463F00342B15
:104FF00020D0008E66FFAC2AA0463700342BA0A933
:105000006066FF008C2A80463C00142B80A0009C28
:105010001CF1408A4600063000C180C200BC009CE2
:105020001CE3408A3400063810EEE403AC2AA046A4
:105030003700342BA0A96066FF0078EEE60300C2BB
:10504000FFFF10EEE803AC2AA0463700342BA0A9DE
:105050006066FF0000C0A0C104F626380630AC2A06
:10506000A0463700342BA0A96066FF000638A1C116
:1050700004F66630009CACFB408AB60040284F64C2
:10508000F00806300428F208E008004600BC00C121
:1050900080284630009C88F70066FF00602846386C
:1050A00000C2E50000D04084008A48004154042832
:1050B000F208E008004600BC20C1A0280BC020AACE
:1050C0000066FF0000860F00208A28000DC020AA7D
:1050D0000066FF000680208A1A0020A80066FF00F4
:1050E00020C2E500A0D0006640000084208A0400B1
:1050F000008EB2FF26386638009C32F0408A2E00BF
:10510000063000C180C200BC009C32E2408A180018
:10511000063810EEE40378EEE60300C2FFFF10EE5F
:10512000E80300C0A0C104F62638A1C104F6A1C15D
:1051300004F66638A1C104F60228009CFCE7408A08
:105140001E0000C180C200BC009CD8E1408A100053
:10515000009C02F400C180C23ABC80A0A0C104F649
:10516000A1C104F6482A50EEE404502A58EEE604A1
:1051700018EEE70430EEE80450C050EEEA04009C5C
:10518000E80100A80066FF00009CEC01408A3000A6
:10519000010480A82066FF0020863A00208A3C0097
:1051A000009CF4010056410018EEE70440C050EEA8
:1051B000E80450C6E404424450EEE404008E1C00AF
:1051C00000862F00208A140040C050EEE80450C62C
:1051D000E404414450EEE404008E000018C6E704E5
:1051E0000066FF00009CE209408A440178C6E7049B
:1051F0006066FF00009CB201009C6E0100A8006682
:10520000FF000084008A0A01009CBC01408A28013A
:1052100010C6EC040184208A3C00009C6402408A91
:10522000340000C180C2EE0420C1A0C20E05009C63
:1052300038EA408A0A0001C018EE1B05008E0600FD
:1052400000C018EE1B0518C6E7040066FF0030C654
:10525000E804008ECC0000C180C2EE0400A8006605
:10526000FF0000862E00208A4400010480A82066EA
:10527000FF002084008A7CFF20862E00208A2E00DA
:10528000010480A82066FF002084208A200030C608
:10529000E8042084008A5CFF009C9CFE408AA400F5
:1052A00030EEE80410C010EEEA04008E46FF10C68F
:1052B000EA0400661000008A860000C180C2EE0485
:1052C00020C1A0C20E05009CA0E9408A0A0001C0CE
:1052D00018EE1B05008E060000C018EE1B0510C658
:1052E000E80410EEEE03009C3AF9408A3E002028C4
:1052F0002F64F20AE00A204600BC00C182281AA6E8
:1053000010EEE8040BAE0066FF0010EEEA04008E1B
:10531000E2FE18C6E7040066FF0030C6E80450C687
:10532000EA0460C070EEEE03A0C104F6008E140023
:1053300000C2DFFF008E0C0000C2E5FF008E0400FB
:1053400000C2DCFF063000C010EEEE030638A1C13B
:1053500004F640C050EEEC04009C08FE04F641C088
:1053600050EEEC04009CFCFD04F618C6E60400298F
:1053700010C6E404802804F6008641007688008682
:105380005B006C88008661006A8800867B00448828
:10539000A0C104F6A1C104F6008661006A880086F7
:1053A0007B0044880056200004F6009CBCFF00A847
:1053B0000066FF0000862F0026880104008EEEFFA5
:1053C000082A10EEE40404F6009C9EFF20C1A0C24F
:1053D000EE0440C000A80066FF0000841888008624
:1053E0002F00128840861F00448820D021044144A9
:1053F0000104008EDEFF00C020D0082A10EEE40475
:1054000040861F0062885FC000C180C2EE040112A6
:105410000066FF000084008A1400009C1400408A8B
:105420000400008EE8FF00C2E5FFA1C104F6A0C1A0
:1054300004F600862000608A440000862200008A6C
:105440003C0000862A00008A340000863A00008A68
:105450002C0000863C00008A240000863E00008A62
:105460001C0000863F00008A140000865C00008A51
:105470000C0000867C00008A0400A0C104F6A1C1D3
:1054800004F6009CE4FE00A80066FF0000862F00E2
:1054900026880104008EEEFF00840488A1C104F672
:1054A000A0C104F630EE3E0510EEEE0300C020C1B0
:1054B000A0C25205009CCCEA408A5000063000C1D0
:1054C00080C2520580A82066FF0020862E00008A38
:1054D00034009AA650C63E052480208A280006384B
:1054E00010C69C050084008A060001C0A0C104F615
:1054F00000C180C2520520C1A0C24405009CC4E87E
:1055000000C0A0C104F60638008EA2FF0086DEFFB0
:10551000248800C2E4FFA1C104F6482A50EE4005E9
:10552000502A58EE420518EEE70430EEE804009CDD
:105530009806408A1C0178C6E7046066FF00009C5C
:10554000260118C6E7040066FF000046410020D08F
:10555000210400C23A0020D02104009C180100C0A0
:1055600010EE3C0530C6E8042084008A2A0010C6EC
:105570003C051084408AD4004028E00C00C180C261
:105580001C05844080C8014410EE3C05009CA8FB2B
:10559000408AC600008ED0FF10C63C050084208AD9
:1055A0001400009CC20000C22F0020D02104009CE7
:1055B000C400008E840010C63C050084008A7A0076
:1055C000015406304028E00C00C180C21C05844014
:1055D00080A050C63C0541540480248800C0108C33
:1055E00040284144E00C00C180C21C05844000A05A
:1055F000009CB0FE408A60000630009C6A0000C239
:105600002F0020D0210406380084088800C180C201
:105610007C05068C00C180C2440500A80066FF001E
:105620000084008A0A0020D001042104008EEAFFD1
:10563000009C42000638008E80FF009C2A0000C0BB
:1056400020D000C010EEEE03A0C104F600C2FDFFA2
:10565000088C00C2DFFF028C2638063000C010EE36
:10566000EE030638A1C104F618C64205202910C66B
:105670004005A02804F60A2A10EE400504F600F8BA
:10568000463066308634263010EE80040428009CB4
:10569000CCFC408ABC0018EE8204602830EE9A04EC
:1056A000009CEA040628009C2005408AA40010C63D
:1056B00080040E64008A120041AE0066FF00008A7A
:1056C000080000C2E2FF008E880010C69A0410EEA7
:1056D000EE03009C4EF5408A300010EE8404009CDE
:1056E0008205408A6C0010C6800400660800008AAB
:1056F000140010C6800400660200008A0800009CA6
:105700001806408A4C00008E24000086E4FF208AA0
:10571000400010C6800400660400008A2A0010C6FB
:105720009A0410EEEE03009C9405408A2400009C2D
:10573000C004408A1C00009CC00618C68304006692
:10574000FF00A0C1008E0C0000C2E4FFA1C1008ECA
:105750000200A1C1063000C010EEEE030638A637E5
:10576000063010C63202EE08008601000638228894
:1057700000FAA6392638863C6638463804F600F822
:105780004630663086342630009CB204408A4A0097
:1057900020AE0066FF0000660800008A3000A1AF5E
:1057A0006066FF000628009C2004408A2C0018C672
:1057B00083040066FF00009C6A04009CE408408AA1
:1057C000180018C683040066FF00009C560400C041
:1057D00020D600C0A0C1008E0200A1C1A6370630AD
:1057E00010C63202EE08008601000638228800FA50
:1057F000A6392638863C6638463804F600F8463026
:105800006630863430EE8C0490EE9004302A38EE08
:10581000920420C030EE8E04009C2204408ABA001C
:1058200020AE0066FF0000660200008AA200A1AF61
:105830006066FF000628009C9003408A9C0018C602
:1058400083040066FF00009CDA03009C1206408A75
:10585000880018C683040066FF00009CC60310C6BB
:105860008C040084008A7800009C1006408A6A003C
:105870000084008A6A0010EE9404009C4A06408A64
:10588000580018C683040066FF00009C9603009C25
:10589000800618C683040066FF00009C860310C6BD
:1058A0009404009CC806408A300010C6940430C698
:1058B0008C04205030EE8C0430C68E04204030EE34
:1058C0008E0430C69004204030EE9004008E8EFF8F
:1058D00000C2E6FFA1C1008E0C00A1C1008E06002F
:1058E00010C68E04A0C1A63730C63202EE0A20864A
:1058F0000100228800FAA639863C6638463804F64C
:1059000000F846306630863430EE8C0490EE900419
:10591000302A38EE920420C030EE8E04009C1E0324
:10592000408A040120AE0066FF0000660400008A81
:10593000E200A1AF6066FF000628009C8C02408A4E
:10594000E60018C683040066FF00009CD60241AE44
:105950000066FF00208AC600009C0405408AC8003B
:1059600018C683040066FF00009CB80210C68C04B1
:105970000084008AB800009C5206408AAA0018C61B
:1059800083040066FF00009C9A02009C200510EE34
:105990009404009C3205408A8E0018C68304006679
:1059A000FF00009C7E02009C960518C683040066DA
:1059B000FF00009C6E02009C3205408A6A0018C6F7
:1059C00083040066FF00009C5A0210C69404009CE9
:1059D000E005408A520018C683040066FF00009C60
:1059E000420220AE0066FF00006E080020D610C6FE
:1059F000940430C68C04205030EE8C0430C68E04E3
:105A0000204030EE8E0430C69004204030EE9004EA
:105A1000008E58FF00C2E6FFA1C1008E160000C232
:105A2000E2FFA1C1008E0C00A1C1008E060010C6CD
:105A30008E04A0C130C68E04A637263030C632028E
:105A4000EE0A20860100228800FA2638A639863C14
:105A50006638463804F600F86630863418EE82045C
:105A600030EE960450EEEE0390EE9004502A58EE7D
:105A7000920418C682040066FF00009C4C01408A14
:105A8000960078C682046066FF0010C6E8030086B0
:105A9000FFFF008A2E0058C6EC034680208A2400AF
:105AA00050C6740530C6EE034280208A160050C6E8
:105AB000EA03414430C696044280208A060021C091
:105AC000008E080000C030C69604214420C1A0C248
:105AD000AC042630009CACE4408A2C0026382154CB
