:0200000400FFFB
:1000000060C1E0C2FEFFFF982000FF98860300C396
:10001000FF0080C2CA04FF984005FF90927C010255
:1000200006302630463000C2040520C2FF0040C022
:1000300000C1842880C802CE444440862400608ADF
:10004000EEFF00C2FE0420C2FF0000C1842880C869
:1000500002CE444440860002608AEEFF00C180C2A6
:10006000280000C2FF0000C800C2140602CE80C2F1
:100070002C0000C2FF0000C800C2600602CE80C291
:10008000300000C2FF0000C800C2CE0602CE80C20F
:10009000340000C2FF0000C800C2860702CE80C242
:1000A000380000C2FF0000C800C24E0802CE80C265
:1000B000640000C2FF0000C800C2821102CE80C2EC
:1000C000680000C2FF0000C800C2881102CE80C2D2
:1000D0006C0000C2FF0000C800C2DE1102CE80C268
:1000E000700000C2FF0000C800C2C61202CE80C26B
:1000F000740000C2FF0000C800C2B41B02CE80C260
:10010000780000C2FF0000C800C25E1E02CE80C29E
:100110003C0000C2FF0000C800C2C80802CE80C276
:10012000400000C2FF0000C800C2CA0902CE80C25F
:10013000440000C2FF0000C800C2D00A02CE80C244
:10014000480000C2FF0000C800C2BE0B02CE80C241
:100150004C0000C2FF0000C800C2F60C02CE80C2F4
:10016000580000C2FF0000C800C2180D02CE80C2B5
:10017000500000C2FF0000C800C2360E02CE80C28E
:10018000540000C2FF0000C800C2B40E02CE80C2FC
:100190005C0000C2FF0000C800C29A0E02CE80C2FE
:1001A000600000C2FF0000C800C23A0F02CE80C249
:1001B000A00000C2FF0000C800C2E62702CE80C235
:1001C000A40000C2FF0000C800C20C2802CE80C2FA
:1001D000A80000C2FF0000C800C2362802CE80C2BC
:1001E000AC0000C2FF0000C800C25C2802CE80C282
:1001F000B00000C2FF0000C800C2822802CE80C248
:10020000F00000C2FF0000C800C2E06102CE80C260
:10021000F40000C2FF0000C800C2006302CE80C22A
:10022000F80000C2FF0000C800C2826302CE80C294
:10023000FC0000C2FF0000C800C28A6402CE80C277
:10024000000100C2FF0000C800C2F86502CE80C2F3
:100250007C0000C2FF0000C800C2C47002CE80C291
:10026000800000C2FF0000C800C26C1302CE80C232
:100270002C0100C2FF0000C800C2742002CE80C260
:10028000040100C2FF0000C800C2884102CE80C243
:10029000C80000C2FF0000C800C2AC2A02CE80C263
:1002A000CC0000C2FF0000C800C21E2B02CE80C2DC
:1002B000D00000C2FF0000C800C2F82A02CE80C2EF
:1002C000D40000C2FF0000C800C2D22A02CE80C201
:1002D000080100C2FF0000C800C22A6E02CE80C220
:1002E0000C0100C2FF0000C800C2066F02CE80C22F
:1002F000100100C2FF0000C800C2A04002CE80C2B0
:10030000140100C2FF0000C800C2CC4102CE80C26E
:10031000180100C2FF0000C800C2D84202CE80C24D
:100320001C0100C2FF0000C800C2024302CE80C20E
:10033000200100C2FF0000C800C2344302CE80C2C8
:10034000300100C2FF0000C800C2A62F02CE80C24A
:10035000340100C2FF0000C800C2B02B02CE80C230
:10036000380100C2FF0000C800C22E6002CE80C269
:100370003C0100C2FF0000C800C2A00602CE463801
:100380002638063804F6063000C010EE000210EEE3
:10039000020210EE040210EE060210EE1C0210EE35
:1003A000320200C2020110EE00A300C2EA0710EE02
:1003B00002A308C010EE04A309C010EE06A300C2F9
:1003C000E00410EE08A300C2FF0010EE0AA300C272
:1003D000EA0410EE0CA300C2FF0010EE0EA3FF987B
:1003E0005C14FF989604FF98D621FF982822FF9866
:1003F0005274FF98287BFF98A828FF982833FF980D
:100400002838FF980E04FF98C621063804F680C2EB
:10041000CE0500C100C020C2000201162154208A6E
:10042000F8FF00C023C0000000C3FF0080C2D80452
:10043000FF98460401C021C000C3FF0080C2DC0455
:10044000FF98460404F640286228FF986867408AAF
:100450004200A0C2CE0520C100C22000A0A8206694
:10046000FF00008A0C00A04610000154208AECFF17
:1004700004F60A2A80A82066FF00A1162084008ABC
:1004800006000104008EECFFA02820C12428ACD671
:100490002628ADD604F60630063400C3E00080C23C
:1004A000682400A0008668240E8802C010EE1C029A
:1004B00001C010EE3C020C8C01C010EE1C0205C005
:1004C00010EE3C02063C063804F6426F6F74696E0B
:1004D00067206B2F4F530A00524F4D0052414D0081
:1004E00050686173652036312B00323032362D3042
:1004F000382D30392031323A31393A31390000C2A1
:10050000FFFF84F460A000667000F00810441084BF
:100510002288100211842288110212842288120279
:1005200013842288130214842288140215842288DA
:1005300015021684228816021784228817021F02C9
:10054000263086348018000020C000C3DF0080C041
:1005500021120084088800D02144008EF2FF022876
:10056000863C263804F600C3DF0080C000D004F6C5
:1005700026304630202840C000C180C2230220849B
:100580002E88010600C2300000D04144008E2400B5
:100590002084008A1E00022846300634FF98287600
:1005A000063C463820463000010680D041442028D1
:1005B000008EDCFF8018000000C3DF0080C0408494
:1005C0000A88211200D04154008EF2FF46382638A6
:1005D00004F62630463040282428F00A2F642A8466
:1005E000668820463700048C2046300000C3DF00B8
:1005F00080C080D024282F642A8466882046370053
:10060000048C2046300000C3DF0080C080D0463814
:10061000263804F6063086C6000000C112A6006621
:1006200008000638208A0C0000C3DF0080C000D01C
:1006300000C004F4063286340635A6C6000020C188
:1006400030C638022EA72480288840C3DF00C0C0EF
:1006500040D0FF987C30063D863C063A00C004F44A
:10066000008E000086C6000000C112A600661800B9
:10067000008A480A463086C6000000C10EA650C651
:10068000380204800888FF984C11008EE8FFFF981C
:100690009A106888FF981A11008EDAFF463804F421
:1006A00086C6000000C112A600661800008AEA098A
:1006B000463086C6000000C10EA650C6380204802F
:1006C000208A06004638008ED009463884F4063465
:1006D00086C6000000C112A600660800063C208AFB
:1006E0003800263086348018000020C000C3DF00A8
:1006F00080C000F821120084088800D02144008EB8
:10070000F2FF10C63202EE0800860100228800FACD
:100710000228A0C1863C263804F606328634063507
:100720000019000020C0A6C6000020C110C6380273
:10073000AEA70680248861C0028C60C000C3DF00C1
:1007400080C000F841120084008A20006084028882
:1007500000D02630663006340635FF987C30063DE2
:10076000063C663826382144008ED8FF10C6320277
:10077000EE0800860100228800FA0228A0C1063D8A
:10078000863C063A04F6063486C6000000C112A66E
:1007900000660800063C208A400026304630863439
:1007A00080180000211320C000C3DF0080C000F8C3
:1007B00040840C88211200D021444154008EF0FF67
:1007C00010C63202EE0800860100228800FA0228D4
:1007D000A0C1863C4638263804F6063286340635F3
:1007E00000190000411320C0A6C6000020C110C699
:1007F0003802AEA70680248861C0028C60C000C3A6
:10080000DF0080C000F84084008A28004112608424
:10081000028800D026304630663006340635FF9810
:100820007C30063D063C6638463826382144415423
:10083000008ED2FF10C63202EE0800860100228828
:1008400000FA0228A0C1063D863C063A04F60632AC
:100850008634063580180000402820C02630FF98D6
:1008600064062638602860860D00008A4400608691
:100870000A00008A3C006086080014882480408AB0
:10088000DAFF0628FF981406A1172144008ECCFF3A
:100890002084008AC6FF2106215408C0FF98140650
:1008A00000C22000FF98140608C0FF981406008EAE
:1008B000AAFF0AC0FF98140660C0A0D10228A0C1F8
:1008C000063D863C063A04F6063086C6000000C1A6
:1008D00012A60066080080280638063286340635DF
:1008E000682A6084008A020061C0202840C000F8A5
:1008F00000C180C2230220842E88010600C230007D
:1009000000D04144008E28002084008A2200022862
:10091000463066300634FF982876063C66384638FE
:1009200020463000010680D041442028008ED8FFA8
:100930006084208A34008018000000C3DF0080C07B
:10094000642860840A88A11280D06154008EF2FF6E
:1009500010C63202EE0800860100228800FA042840
:10096000A0C1063D863C063A04F624280019000082
:10097000A6C6000020C110C63802AEA70680248893
:1009800061C0028C60C000C3DF0080C04084008A68
:100990001E0041126084028800D0063206340635FB
:1009A000FF987C30063D063C063A4154008EDCFF41
:1009B00010C63202EE0800860100228800FA0228E2
:1009C000A0C1063D863C063A04F6063086C6000005
:1009D00000C112A6006608000638208A4E002630A4
:1009E0004630402800C3DF0080C000F80428EC082F
:1009F000F008FF98940A0428EC080F64FF98940A02
:100A00000428EE08F008FF98940A0428EE080F6402
:100A1000FF98940A10C63202EE0800860100228870
:100A200000FA04C0A0C14638263804F606328634DF
:100A300006354028A6C6000020C110C63802AEA761
:100A40000680248861C0028C60C000C3DF0080C0C3
:100A500000F80428EC08F008FF98A60A0428EC081F
:100A60000F64FF98A60A0428EE08F008FF98A60A6B
:100A70000428EE080F64FF98A60A10C63202EE089A
:100A800000860100228800FA04C0A0C1063D863C11
:100A9000063A04F60A84468800463000048C004674
:100AA000370000D004F60A84468800463000048CE3
:100AB000004637006084028800D046306630063435
:100AC0000635FF987C30063D063C6638463804F60D
:100AD00086C6000000C112A600660800208A4A00EF
:100AE00026304630863400C3DF0080C000F830C6B0
:100AF0001C0220860100148820C3FF00A0C2B60B90
:100B0000211340840A8800D1008EF4FF4CC000D12C
:100B100010C63202EE0800860100228800FA00C0EA
:100B2000A0C1863C4638263804F60632863406359F
:100B3000A6C6000020C100C24C0020A2C02800C2EE
:100B40004E0020A2402940C2401F00C2200742148C
:100B50004154208AF8FF40C22E0000C030CA40C273
:100B6000520000C030CA10C63802AEA70680208AE4
:100B7000380000C3DF0080C000F830C61C022086A9
:100B80000100148820C3FF00A0C2B60B21134084CB
:100B90000A8800D1008EF4FF4CC000D110C632028A
:100BA000EE0800860100228800FA00C0A0C1063DC0
:100BB000863C063A04F61B5B324A1B5B4800063053
:100BC000263086C6000000C112A60066080026383E
:100BD0000638208A540046306630063550C61C025E
:100BE00040860100008A360000C3DF0080C000F8A4
:100BF0005BC000D140C25B0000D1FF98B20C40C284
:100C00003B0000D10228FF98B20C40C2480000D13E
:100C100010C63202EE0800860100228800FA00C0E9
:100C2000A0C1063D6638463804F646306630863444
:100C30000635A6C6000020C1008402880154208425
:100C4000028821546028F20EF20E626840C25200FF
:100C5000B0CB50C63802AEA74680208A4600014479
:100C6000214450C61C0240860100008A360000C3A1
:100C7000DF0080C000F85BC000D140C25B0000D143
:100C8000FF98B20C40C23B0000D10228FF98B20C82
:100C900040C2480000D110C63202EE0800860100B2
:100CA000228800FA00C0A0C1063D863C663846385E
:100CB00004F660C040C0008664006A880056640084
:100CC0004144008EF0FF408408884046300000D147
:100CD00061C040C00A8468880A544144008EF4FF11
:100CE00040842488608406884046300000D1004655
:100CF000300000D004F610C61C02008602003088C6
:100D000000C3DB0000C600002028EE0AEC0804F453
:100D100000C2500038C004F48634063400840488CD
:100D200021C0028C20C0A6C6000020C1422800C2FB
:100D30002A0020CB10C61C0200860100008A320067
:100D400000C3DF0080C01BC000D000C25B0000D029
:100D500000C23F0000D000C2320000D000C2350007
:100D600000D04084068800C26800048C00C26C0079
:100D700000D0063C863C04F4463040280264242817
:100D80002164208402880444242824642084028866
:100D90000144463804F63BC080D020C25B0080D0BE
:100DA00020C2300080D020C23B0080D006302028F6
:100DB000286407642630FF98780D2638208406883A
:100DC00000465A00028C1E44FF98B20C20C23B0021
:100DD00080D00638F208EC080764FF98780D0046CA
:100DE0002800FF98B20C20C26D0080D004F6463077
:100DF0006028F20EE00E4628E00EE00E64406240ED
:100E0000624040C24C0030A34640C42840C24E005D
:100E100030A3442940C22C0030A3EE0CF20CF20C9B
:100E200000C22000046846384084088842144154B7
:100E3000008EF4FF04F6863406350630A6C60000A0
:100E400020C106380630EE0820C22C0028CA32A67F
:100E5000006608000C8810C63802AEA60280208A00
:100E60002C0010C61C0200860100008A200000C36E
:100E7000DF0080C000F806380630EE08FF98960DB7
:100E800010C63202EE0800860100228800FA0638F9
:100E9000063D863C00C0A0C104F68634A6C600000C
:100EA00020C100C2520020A22028EC0AEE08863C95
:100EB000A0C104F686340635A6C6000020C132A6BD
:100EC00000660800008A360000C25200A0A306286F
:100ED000EC0820C22E00A8A20240008664006488AC
:100EE000005664002628EE0A40C250004250FF9887
:100EF000EE0D10C63802AEA60280208A320010C65F
:100F00001C0200860100008A260000C3DF0080C0AA
:100F100000F81BC000D000C25B0000D000C24B0034
:100F200000D010C63202EE0800860100228800FAC6
:100F3000063D863C00C0A0C104F686340635A6C630
:100F4000000020C132A600660800008A760000C2B8
:100F50005200A0A366300628EC0820C22E00A8A2EA
:100F60000240008664006488005664002628EE0A69
:100F700040C250004250FF98EE0D66380628EC083B
:100F8000014420C23000A8A20280408A2A00063014
:100F9000263040C22E0030A30440008664006488DE
:100FA0000056640020C040C25000FF98EE0D263865
:100FB00006380144008ED0FF10C63802AEA602806B
:100FC000208A320010C61C0200860100008A26001A
:100FD00000C3DF0080C000F81BC000D000C25B006F
:100FE00000D000C24A0000D010C63202EE080086CF
:100FF0000100228800FA063D863C00C0A0C104F62C
:10100000EE0800860E00008A2E0000861000008A7E
:10101000380000868100608A420000868B00408A8A
:101020003A0000568000463066300635FF98123090
:10103000063D6638463804F6463066300635FF9879
:10104000242F063D6638463804F6463066300635AD
:10105000FF98582F063D6638463804F6EE0830C62D
:101060000402214420663F0090C606022880008AC0
:101070002600B0C6040220C1A046802720D030EE52
:10108000040230C63E0220840E88A22820C100C07F
:101090002ACE00C010EE3E0204F610C6040230C68E
:1010A00006020280148800C180C2802708AA214459
:1010B00020663F0030EE060204F484F4FF989A1094
:1010C0006888FF981A11008EF2FF04F40630063289
:1010D00006348634063530C60802A22820C12ACE3E
:1010E0000E2A20CE162A22CE60C1E0C2FEFFFF9853
:1010F0002A1810C6080200860008008A1800A028D6
:1011000020C120A6E02822A66029063D863C063C98
:10111000063A063800FCFF90A619A63700F8FF989B
:101120009A10408A1800A639063010C63202EE081E
:1011300000860100228800FA0638A0C104F610C615
:10114000080210EE3E0206C0008E80FFA63700F8AF
:1011500000C0008E76FF06302630863430C63E0250
:1011600020841688A22820C12AA60086060024888A
:1011700000C02ACE00C010EE3E02863C263806385B
:1011800004F606C6040004F4A63700F8063006325A
:1011900006348634063510C60802A02820C10E2A5F
:1011A00020CE162A22CE3CA601443CCE60C1E0C22D
:1011B000FEFFFF982A1810C6080200860008008A61
:1011C0001800A02820C120A6E02822A66029063DFC
:1011D000863C063C063A063800FCFF90A619A63766
:1011E00000F80630063206348634063510C608028A
:1011F000A02820C172A702C02ACE38CF00C024CEBA
:10120000AEA70628FF989C210628FF98FE19608A41
:10121000560010C60802A02820C132A60066180099
:10122000008A0C00FF98081600C2000810EE0802A1
:101230000628FF983A1A60C1E0C2FEFFFF982A18FC
:1012400010C6080200860008008A1800A02820C1E5
:1012500020A6E02822A66029063D863C063C063AE8
:10126000063800FCFF90A619CA2A40C10428FF983E
:10127000721A00C04ACE00C05ACE10C60802A0287A
:1012800020C1FF98081600C2000810EE08020628C8
:10129000FF983A1A60C1E0C2FEFFFF982A1810C6F4
:1012A000080200860008008A1800A02820C120A695
:1012B000E02822A66029063D863C063C063A063810
:1012C00000FCFF90A6190084228804F4A63700F8D9
:1012D0000630063206348634063510C60802A028C9
:1012E00020C10E2A20CE162A22CE3CA601443CCE96
:1012F00072A710C60002044028CE01C02ACE60C1E9
:10130000E0C2FEFFFF982A1810C6080200860008F7
:10131000008A1800A02820C120A6E02822A6602963
:10132000063D863C063C063A063800FCFF90A619AE
:1013300046300635CA2A40C14EA70428FF989C2192
:101340000428FF983A1A0428FF98FE19408A0E00D4
:1013500058A6FF98721A00C02ACE00C03ACEAC2A16
:1013600020C1FF980816063D463804F600F84630BE
:101370006630863406350084008AA00050C6080214
:10138000A42820C12EA70480008A9000FF98B819D5
:10139000408A9200CA2A40C14AA760C04086020023
:1013A000208A020061C040860500008A8C0052A796
:1013B00040660400208A780050C60802A42820C194
:1013C00032A740660200208A0A0056A72EA6408057
:1013D000208A5C006184008A0E0042C04ACF40C26D
:1013E000FFFF58CF40C044CFAC2A20C1FF98301334
:1013F000C0C2800840C140C23E00CAA76086020049
:101400002888AC2A20C1FF983013C0468000415480
:10141000208AE6FF00C0A0C1008E240000C2FDFFAC
:10142000A1C1008E1A0000C2E4FFA1C1008E10000D
:1014300000C2F6FFA1C1008E060000C2F5FFA1C1E7
:10144000A63750C63202EE0C40860100228800FA10
:10145000A639063D863C6638463804F60630263006
:101460008634063520C1A0C2000820C23F0003C058
:101470002ACEA04680002154208AF4FF00C010EE3E
:101480000C0210EE100210EE1A0210EE380210EEEE
:101490003A0220C1A0C2000800C2FEFF20CE00C058
:1014A00022CE00C024CE26CE28CE00C02ACE00C038
:1014B0002CCE2ECE30CE32CE34CE36CE38CE3ACE24
:1014C0003CCE3ECECA2AC046600040C100C2690080
:1014D00040D0C14400C2640040D0C14400C26C008E
:1014E00040D0C14400C2650040D0C14400C040D0DB
:1014F00000C2000810EE0802063D863C2638063879
:1015000004F626304630863420C1A0C2800820C2AE
:101510003E0043C02AA604801088A04680002154C3
:10152000208AF0FF00C0A1C1088C00C02ACE0A2A80
:10153000A0C1863C4638263804F606328634402858
:10154000A0C2800820C120C23E002AA60086030057
:101550000E88A2A74680688824A60640408070882E
:10156000A04680002154208AE0FF0428A0C1048CFA
:101570000428A1C1863C063A04F6063006320084EF
:10158000008A2E0050C63002EE0C414422C060C0DA
:101590000228FF983A155088614466A660806A88E0
:1015A000022806500144148C60C021442480608AC3
:1015B000DEFF063AE24400C0A1C104F6063AE24466
:1015C000A0C104F601C0FF907A15263046300634DB
:1015D0008634802800C130C60C0220842A88482A1C
:1015E00006CF50EE0C020C8CA22820C126A706CFF5
:1015F000482A26CF50C61002414450EE1002863CC5
:10160000063C4638263804F60630063206340635DF
:1016100032A600661800008AC400AEA660C2500060
:1016200038A20084008A0E0000868008608A72005A
:101630000A80208A120000C010EE380210EE3A0232
:10164000FF985611008E5A00C02840C150C058A2C1
:101650000A80008A0C00C0284154208AF0FF008EC6
:10166000400038A258CA10C638020280208A1C00E6
:1016700058A2802800C10EA610EE3802FF9856111D
:10168000A636A82AFF98FE2CA63820C110C63A021A
:101690000280208A0C0058A2802800C10EA610EEFD
:1016A0003A0260C24C0038A2802860C24E0038A2C4
:1016B00000298084008A0400FF981C2300C060C2B7
:1016C000500038CA60C24C0038CA60C24E0038CAE6
:1016D00060C2240038CA32A60066E7FF32CE2EA6CA
:1016E0000084008A08008634FF986E27863C10C666
:1016F0000C020084008A3000802800C1C82A40C142
:1017000006A60A800A8880288C80208AF2FF188C1E
:1017100026A606CE10C60C020A802C8826A60A80B1
:10172000228800C010EE0C0203C02ACE00C026CED4
:10173000063D063C063A063804F626304630863426
:101740000635FF980215408AD200A02820C110C695
:10175000160222CE10C618020084228801C024CEB0
:1017600000C010EE18022CCE30CE32CE34CE38CEA1
:101770003ACE3CCE3ECE28CECA2AC046200040C13A
:1017800040C2300042144154208AF8FFC0C24002D7
:1017900040A80084008A2000122B8A2A804660001C
:1017A0005FC040A800D000840E88C14481444154E9
:1017B000208AEEFF00C000D010C61A0236CE10C636
:1017C000100201442ECE10C616024029C0C2F0FFFE
:1017D00000C2800040C8C0C2F2FF10C6140240C858
:1017E000C0C2F4FF10C6120240C800C0C0C2DCFF75
:1017F0004214C086F0FF608AF6FFC0C00A2A40C8C3
:10180000C4C010C61002014440C800C2DCFF20CE94
:101810000A2AFF98CA150A2AA0C1048C00C0A1C1D7
:10182000063D863C4638263804F626304630863457
:1018300010C6080200860008288850C60C0224281A
:10184000088CA02820C126A72428A22820C12AA6C7
:10185000008600000A88A6A624801088008EEAFF71
:1018600030EE0802863C4638263804F620C20008CE
:1018700030EE0802863C4638263804F6063006323A
:101880000634863470C6000220C2800840C23E0082
:1018900020C1A2282AA600860100308828B6062882
:1018A000085000660080248800C02ACE20468000B0
:1018B0004154208ADCFF863C063C063A063804F692
:1018C0000630863466A600667000F008E00820C383
:1018D000FF00A0C2D8182094E818E818E818E81803
:1018E000E818E818E818E818863C0638063006328A
:1018F00006348634063510C60802A02820C10E2AF8
:1019000020CE162A22CE3EA601443ECE20C2220080
:1019100028A2004C28CA60C1E0C2FEFF10C6000227
:1019200030C63C02024010EE000210C60202004C1B
:1019300010EE020230C60402214420663F0010C6A9
:1019400006022080148800C3DE0080C000A000844E
:101950000888FF980010008EDAFFFF987C18FF9827
:101960002A1810C6080200860008008A1800A0285D
:1019700020C120A6E02822A66029063D863C063C20
:10198000063A063800FC60C1E0C2FEFF01C010EE5E
:10199000320200C2B419063000C2FF00063000C295
:1019A0008000063000FCE0C2FEFF60C101C010EE06
:1019B000320200FA008EFCFF0084008A3A002630D2
:1019C00046304028A0C2800820C120C23E002AA67E
:1019D0000086030006882EA604801488A046800096
:1019E0002154208AE8FF46382638A0C020C184F45C
:1019F00004284638263804F4A0C020C184F42630D8
:101A000046304028A0C2800820C120C23E002AA63D
:101A10000086040026883AA604801688A046800026
:101A20002154208AE8FFA0C020C104284638263867
:101A300084F404284638263804F4263046308634A8
:101A40004028A0C2800820C120C23E002AA60086ED
:101A500003000A8836A60480248800C036CEA0463B
:101A600080002154208AE4FF0428863C463826382A
:101A700004F6063206346028A0A622A7042982288C
:101A8000924480C9824420C2800080C80628063C57
:101A9000063A04F606320634A0A622A704298228B4
:101AA000924460C2DAFF80C9824460C2810080C96A
:101AB000063C063A04F6063400860C00608A2E00C6
:101AC00080460400021000865242208A2000021044
:101AD00000860100208A160002100184608A0E0030
:101AE00080A02080408A0600063CA0C104F6063C87
:101AF00000C2D8FFA1C104F6063446304084008AF3
:101B00008E00408601FE408A86000428009CA6FFC5
:101B1000408A860010EEE60730EEE80710C6E607BA
:101B2000FF987A15408A7C0010EE160210EE14021F
:101B30004638063C10C616024029C0C200020210F8
:101B400042144254208AF6FF00C2000210EE120234
:101B500010C6E60710EE180200C010EE1A0200C10F
:101B600080C2400230C020A800D00084008A0E004D
:101B7000A14481442154208AECFF00C000D0FF988A
:101B80003A17408A280020C1A02846C032CF04F46A
:101B90004638063C00C2FAFF84F44638063C00C2D0
:101BA000D8FF84F44638063C00C2FCFF84F400C22F
:101BB000FBFF84F4A63700F806300632063486347C
:101BC00006356EA60084008AF000008601FE408A79
:101BD0003C0172A600860200608ADE00008640009A
:101BE000408AD60070A6EEA6A0C10240408ACA0074
:101BF00070A60164208AC20072A6002970A68028FF
:101C00006EA6FF98B61A408A000210EEE60730EE84
:101C1000E80710C6E607FF987A15408A440110EEDF
:101C2000160210EE140272A6002970A6802810C6B3
:101C300016022029A0C20002EEA60112211621548C
:101C4000208AF6FF00C2000210EE120210C6E6075C
:101C500010EE180206C6040010EE1A02FF983A179A
:101C6000408A5201A02820C12EA672CE00C2800058
:101C700074CE10C60802A02820C10E2A20CE162A33
:101C800022CE3CA601443CCE60C1E0C2FEFFFF98DC
:101C90002A1810C6080200860008008A1800A0282A
:101CA00020C120A6E02822A66029063D863C063CED
:101CB000063A063800FCFF90A61900C2F9FF72CE62
:101CC00000C2810074CE10C60802A02820C10E2ACE
:101CD00020CE162A22CE3CA601443CCE60C1E0C2F2
:101CE000FEFFFF982A1810C6080200860008008A26
:101CF0001800A02820C120A6E02822A66029063DC1
:101D0000863C063C063A063800FCFF90A61900C245
:101D1000FAFF72CE00C2810074CE10C60802A0285D
:101D200020C10E2A20CE162A22CE3CA601443CCE4B
:101D300060C1E0C2FEFFFF982A1810C608020086A4
:101D40000008008A1800A02820C120A6E02822A6AA
:101D50006029063D863C063C063A063800FCFF90AA
:101D6000A61900C2FCFF72CE00C2810074CE10C65C
:101D70000802A02820C10E2A20CE162A22CE3CA678
:101D800001443CCE60C1E0C2FEFFFF982A1810C695
:101D9000080200860008008A1800A02820C120A69A
:101DA000E02822A66029063D863C063C063A063815
:101DB00000FCFF90A61900C2FBFF72CE00C281009A
:101DC00074CE10C60802A02820C10E2A20CE162AE2
:101DD00022CE3CA601443CCE60C1E0C2FEFFFF988B
:101DE0002A1810C6080200860008008A1800A028D9
:101DF00020C120A6E02822A66029063D863C063C9C
:101E0000063A063800FCFF90A61900C2D8FF72CE31
:101E100000C2810074CE10C60802A02820C10E2A7C
:101E200020CE162A22CE3CA601443CCE60C1E0C2A0
:101E3000FEFFFF982A1810C6080200860008008AD4
:101E40001800A02820C120A6E02822A66029063D6F
:101E5000863C063C063A063800FCFF90A619A637D9
:101E600000F80630063206348634063572A6FF982E
:101E7000B819408A0201CA2A40C136A626C6040003
:101E80000280208A460152A6006640000C8852A6B5
:101E90000066BFFF52CE008ECE0072A6FF98FE19DC
:101EA0004C880A2A30C608020280208A720110C6B5
:101EB0000802A02820C14AA600860200008A4E001F
:101EC00000C2800074CE72A63ACE04C02ACE0E2A7A
:101ED00020CE162A22CE3CA601443CCE60C1E0C2F0
:101EE000FEFFFF982A1810C6080200860008008A24
:101EF0001800A02820C120A6E02822A66029063DBF
:101F0000863C063C063A063800FCFF90A61958A607
:101F100072CE00C2800074CEAC2A20C1FF98081691
:101F200010C60802A02820C10E2A20CE162A22CED2
:101F30003CA601443CCE60C1E0C2FEFFFF982A18D7
:101F400010C6080200860008008A1800A02820C1D8
:101F500020A6E02822A66029063D863C063C063ADB
:101F6000063800FCFF90A61900C2DAFF72CE00C24C
:101F7000810074CE008E0C0000C2F9FF72CE00C248
:101F8000810074CE10C60802A02820C10E2A20CEDF
:101F9000162A22CE3CA601443CCE60C1E0C2FEFF20
:101FA000FF982A1810C6080200860008008A180048
:101FB000A02820C120A6E02822A66029063D863C54
:101FC000063C063A063800FCFF90A61900C2F8FF4E
:101FD00072CE00C2810074CE10C60802A02820C1B3
:101FE0000E2A20CE162A22CE3CA601443CCE60C149
:101FF000E0C2FEFFFF982A1810C6080200860008FB
:10200000008A1800A02820C120A6E02822A6602966
:10201000063D863C063C063A063800FCFF90A619B1
:1020200000C2F7FF72CE00C2810074CE10C6080253
:10203000A02820C10E2A20CE162A22CE3CA601447A
:102040003CCE60C1E0C2FEFFFF982A1810C608020D
:1020500000860008008A1800A02820C120A6E028D9
:1020600022A66029063D863C063C063A063800FC5E
:10207000FF90A61900F84630663086340635008693
:102080000400408AE00050C60802A42820C1AEA780
:1020900050C636020084008A800040840A88468048
:1020A000008A6000008EC80070EE3602B2A6206E74
:1020B0001000B2CEB2A620660800208A3200063098
:1020C0000628FF98FE19408A0C00FF98941A00C059
:1020D0002ACE008E100010C60802A02820C132A609
:1020E000006E400032CE10C60802A02820C106387B
:1020F0000630FF98FE3106384A88AEA630EE380228
:10210000FF98561120C2240028CA80C000C3DD00F9
:1021100000C800C0A0C1008E66004084008A3E0056
:102120004680208A5400B2A62066EFFFB2CE20C2BD
:10213000240000C028CA10EE36022EA630C638028F
:1021400002802888FF98242F008E060000C0FF9888
:10215000BC2110C60802A02820C1FF982C3200C064
:10216000A0C1008E1A0000C2FDFFA1C1008E1000A8
:1021700000C2F5FFA1C1008E060000C2F6FFA1C19A
:10218000A63750C63202EE0C40860100228800FAC3
:10219000A639063D863C6638463804F626300634B5
:1021A00030C6360220802E8820C030EE360280C035
:1021B00000C3DD0080C8063C263804F680C000C39A
:1021C000DD0000C804F600C010EE360280C000C377
:1021D000DD0000C804F6063001C010EE260210EE45
:1021E0002E0200C010EE2A0210EE2C0210C61C02B5
:1021F000008601001A8800C2000110EE240200C20D
:102200003F0010EE300200C2FF0010EE2802148CD6
:1022100000C2200010EE24021FC010EE300201C0E8
:1022200010EE2802063804F60630263001C020C021
:10223000FF98482201C010EE2A0200C2DAFF10EE19
:102240002C022638063804F646300634002980C0B1
:1022500040C2E0FF00CF41C002CF50C004CF86CEC5
:1022600040C2DAFF08CF40C2164B0ECF80461000A6
:1022700040C2DAFF00CF42C002CF40C004CF40C00E
:1022800006CF08CF063C463804F6063286340635BB
:1022900020282086DBFF408A7400208604004288C4
:1022A00024C042284164408402882144FF98682366
:1022B0007088FF988225408A5400FF986823408ADE
:1022C0004C0020A76428625060860A006488FF984A
:1022D000AE23FF98142422A7406E010022CF50C6DF
:1022E000080240840C88063400C184280EA7063CEE
:1022F000028C40C024CF20A74046060070C62C02A6
:10230000645070EE2C02261E0000A0C1068C00C294
:10231000FCFFA1C1063D863C063A04F62630463055
:102320008634302B282A20560600A228A2A642284E
:10233000406601004084008A20002066FEFFA2CE95
:1023400020A74046060030C62C02244030EE2C0266
:10235000FF98582400C0A0C1068C00C2FDFFA1C197
:10236000863C4638263804F64630063410C62E021F
:102370000084008A2E00002980C004A740841688AB
:102380002029A42820A74280568828A740840688B0
:10239000A428008EEEFF06A70428EE08008ED0FFCA
:1023A000A0C1048C00C0A1C1063C463804F64630EA
:1023B0006630063420A7A2A7261E0000082A024085
:1023C0008028042802500056060000CE0628006629
:1023D000020002CE00C004CE26A606CE28A608CE55
:1023E000A0CE06280066FDFF22CE102AEE0826CEDB
:1023F000082A28CE122B88C000A00056060000C86C
:1024000010C62C020056060010EE2C02063C663860
:10241000463804F64630663006340635122B80C046
:1024200004A76A2A4680288828A704CF008E1E00A9
:10243000522BC42848A76A2A46800A8840840E88FE
:10244000C428008EEEFF26A746CF28A748CF063D1A
:10245000063C6638463804F64630663006340635A3
:10246000122B80C004A74084008A22006A2A64805C
:10247000608A2800522BC42848A74084008A2C0078
:102480006A2A4680408A2400C428008EEAFF4A2A2D
:1024900004CF40C026CF28CF008EDC00722AEE0E7B
:1024A000A6CF28CF4A2A04CF008E620046A726CFA7
:1024B00048A728CF522AEE0C46CF4A2A48CF40A739
:1024C000404606006C2A64404A2A4680208A3E0024
:1024D00040A7A0A746404046060040CF26A746CFCB
:1024E00028A748CF22A74066020040840888C2A7D8
:1024F000606E0200C2CF08A74046060008CF50C653
:102500002C024046060050EE2C02C018000022A704
:10251000406602004084208A5E0020A740460600F4
:102520006A2A64406086F0FF408A4C00522BC6281D
:1025300042A76428606601006084208A3A00A0A750
:1025400040A7644060460600A0CFC6A7A6CFC8A794
:10255000A8CF42A74066020040840888A2A7606E08
:102560000200A2CF08A74046060008CF50C62C02A2
:102570004046060050EE2C02063D063C66384638C2
:1025800004F60632063430C62802EE0A50C6260289
:10259000EE0C2480008A660040C240002480608ADD
:1025A0005C0070C62E02EE0E6084168864800C8873
:1025B000062986C080A1EE0E008EECFF4144008EFD
:1025C000DAFF042820C0FF98482270C62E02EE0EC3
:1025D000062986C080A0EE0A208406886228008E24
:1025E000EEFF00C930C62A02214430EE2A0230C66E
:1025F0002C022046DAFF30EE2C02A0C1068C00C26D
:10260000FCFFA1C1063C063A04F6063286340635C4
:102610000084008A8C006028282A502A246820849C
:102620002A880628FF988A22008E7C00302B282AD0
:1026300020560600A228A2A6422840660100408437
:10264000008A5E00A0A626806688A0C1008E580081
:1026500006340628FF988A22408A3A00063D342B29
:102660002C2A20560600A22820A78636C63640848B
:102670000E88C0A880D0C14481444154008EEEFF32
:10268000C638863806348C2A142BFF981C23063C47
:10269000A0C1008E1200063C00C2FCFFA1C1008E4A
:1026A000060000C2FDFFA1C1063D863C063A04F6C5
:1026B00070C62A02EE0E20C0462840840A882046B2
:1026C000DAFF4154008EF2FF10C62C02205040C0A9
:1026D00010C62E02EE080084008A2C002029A0C01B
:1026E00024A60084008A1800522BC02840A64080EF
:1026F0004288402848A600840688C028008EECFF47
:1027000026A6EE08008ECEFF10C62C02A0C104F64D
:1027100010EEF00320C040C010C62E02EE08008468
:10272000008A46002029A0C0522BD0C042A60066D5
:1027300001000084108844A670C6F0030680268835
:10274000214440A6404042A6006602000084208A40
:10275000100040A6004606006C2A6040C628008E85
:10276000CAFF26A6EE08008EB4FFA0C104F610EE44
:10277000F00310C62E02EE080084008A600010EEFE
:10278000F2032029A0C0522BD0C042A6006601004F
:102790000084008A240044A670C6F0030680208AC4
:1027A0001800461E0000FF981C2310C6F2032029C3
:1027B000A0C0522BD0C0008ED0FF42A600660200FF
:1027C0000084208A100040A6004606006C2A604063
:1027D000C628008EB4FF26A6EE08008E9AFF04F6E7
:1027E00010C62C0204F606328634063500F8FF982F
:1027F0008A22A63730C63202EE0A208601002288DD
:1028000000FAA639063D863C063A04F626304630E4
:102810008634063500F8FF981C23A63730C63202EE
:10282000EE0A20860100228800FAA639063D863C81
:102830004638263804F606328634063500F8FF9806
:102840000A26A63730C63202EE0A20860100228808
:1028500000FAA639063D863C063A04F6863406356B
:1028600000F8FF98B026A637063010C63202EE08F0
:10287000008601000638228800FAA639063D863C0B
:1028800004F686340635063000F8FF981027A63780
:1028900010C63202EE0800860100228800FAA6392E
:1028A0000638063D863C04F600C180C2000420C202
:1028B000800000C001162154208AF8FF04F646303B
:1028C0008634402820C1A0C20004A6A620660100CC
:1028D000008A160028042A2A20868004608AEAFFDB
:1028E00000C2FBFFA1C1008E100020CF20C0A2CEED
:1028F000A4CE21C0A6CE0A2AA0C1863C463804F642
:102900008634009C2C00408A2200A2A62084208AC3
:10291000120020C0A0CEA2CEA4CEA6CE00C0A0C1E0
:10292000008E0A0000C2F9FFA1C1028CA1C1863C41
:1029300004F600860004608A200020282086800497
:10294000408A160020282764208A0E0020C1A02873
:10295000A6A620660100028804F400C2FDFF84F4EC
:102960004630663086340635009CC6FF408A5200E9
:10297000A0A62084E08A0C002154A0CE00C0A0C1F3
:10298000008E400030C6080240C1C22840C020C2AC
:10299000200048CB22A740842A884C2A22CF24CF6B
:1029A000008E1000A4A700C186284C2A20C2200057
:1029B00008CB24CF20A7415420CF00C2F6FFA1C1ED
:1029C000028CA1C1063D863C6638463804F6463086
:1029D00086340635009C5AFF408A4E00A2A6208409
:1029E000008A3A0040C1C22820C2200048A322CF5A
:1029F0004084248840C024CF40C048CB20A7414415
:102A000020CF52A7406601002688009C2600088C33
:102A100052A74066FEFF52CF40C04ACF068CA0A608
:102A20002144A0CE00C0A0C1028CA1C1063D863CBD
:102A3000463804F640A6C2A62229A02800C032CEFD
:102A400000C2800034CE04F610C6080220C1A028BF
:102A5000B2A6206E0100B2CE05C02ACE0E2A20CE2C
:102A6000162A22CE3CA601443CCE60C1E0C2FEFF45
:102A7000FF982A1810C6080220C1A02820A6E02826
:102A800022A6602904F6463040280428009CD0FE87
:102A9000608A10000086F6FF208A0C00009CA8FFC8
:102AA000008EE6FF463804F6463804F600F8063590
:102AB0002630009C08FE2638A637063010C63202A3
:102AC000EE08008601000638228800FAA639063D85
:102AD00004F600F806352630009C24FE2638A6377A
:102AE000063010C63202EE08008601000638228841
:102AF00000FAA639063D04F600F806352630009C9B
:102B0000CCFE2638A637063010C63202EE08008604
:102B100001000638228800FAA639063D04F6A637D9
:102B200000F80630063206348634063572A6009C5C
:102B30002EFE608A14000086F6FF008A180072CE0E
:102B400000C2810074CE008E480072CE00C28000A8
:102B500074CE008E3C0010C6080220C1A02805C01B
:102B60002ACE0E2A20CE162A22CE3CA601443CCEE6
:102B700060C1E0C2FEFFFF982A1810C60802008656
:102B80000008008A260020C1A02820A6E02822A64E
:102B9000602930C63202EE0A20860100228800FA3F
:102BA000063D863C063C063A063800FCFF90A61916
:102BB00006328634063500F8A6C6000020C1B2A64B
:102BC000206608002084208A140100C2803EFF98FD
:102BD0008A22408A000100190000A6C6000020C118
:102BE0004018000000C2200760C2401F0214615458
:102BF000208AF8FF0C2A20C24C0028CA142A20C2BE
:102C00004E0028CAB2A6206E0800B2CE00C020C274
:102C1000520028CA01C020C22A0028CA07C020C208
:102C20002C0028CA00C020C22E0028CA10C61C02D0
:102C3000008602002E8800C3DB0000C60000EE08FC
:102C40000084248800C2500020C2300028CA10C668
:102C500038020084008A0C00FF98FE31408A500040
:102C6000008E0A002EA610EE380210EE3A0232A6AE
:102C700000662000008A320032A60066DFFF32CEF6
:102C80002EA6FF98FE197088A6C6000020C132A6A5
:102C9000006E400032CE088CFF98941A00C02ACEF5
:102CA000A6C6000020C1FF98D431A0C1008E340018
:102CB000A42820C1B2A62066F7FFB2CE00C020C271
:102CC0004C0028CA20C24E0028CA40180000FF98B5
:102CD0001C23008E080000C2FCFF008E040000C20E
:102CE000F6FFA1C1A63730C63202EE0A20860100E7
:102CF000228800FAA639063D863C063A04F600C34F
:102D0000DF0080C010C61C0200860100008A560049
:102D10001BC000D000C25B0000D000C2330000D056
:102D200000C24A0000D01BC000D000C25B0000D02F
:102D300000C2320000D000C24A0000D01BC000D048
:102D400000C25B0000D000C2480000D01BC000D011
:102D500000C25B0000D000C2300000D000C26D0095
:102D600000D0008E04000CC000D000C2320027C08A
:102D7000A0CA00C22E0020A30428F208E0082028E0
:102D8000E008E008024020C24C00A8A22040C2286F
:102D900020C24E00A8A2422900C2300020A34084D5
:102DA000248840C2500010C61C02008601003088F2
:102DB00000C2520020A2EC0801440480428840284E
:102DC00010C61C0200860100008A7C0060C0421010
:102DD0000630EC08202800C2320020A220801E8885
:102DE00000C23200A0CA10C61C02008601000E8874
:102DF000463066300228FF98960D66384638063809
:102E0000EE0800D0614460865000608AC0FF4154E3
:102E10004084008A98000C2A20C24C00A8A260C2FC
:102E2000803E26400280688800C24C0020A2C02854
:102E300010C61C0200860100008A90FF0DC000D061
:102E40000AC000D0008E84FF60C020C04210EE088F
:102E50000086200026882144008E1600063020843B
:102E60000C8800C2200000D02154008EF0FF0638EC
:102E700000D0614460865000608AD0FF4154408495
:102E8000008A2A00208404880AC000D00C2A20C2AC
:102E90004C00A8A260C2803E264002804488008E7A
:102EA000A6FF00C24C0020A2C028008E9AFF10C6C8
:102EB0001C0200860100008A680040C25200B0A3D4
:102EC0004628EC0C41440628EE08014406303BC07D
:102ED00080D020C25B0080D00428FF98B20C20C2B2
:102EE0003B0080D00638FF98B20C20C2480080D04A
:102EF00020C22A0028A23BC080D020C25B0080D024
:102F000020C23F0080D020C2320080D020C23500D5
:102F100080D00084068820C26800048C20C26C0027
:102F200080D004F610C638020084008A2800FF987A
:102F3000B819408A200020C2500028A20084008ACC
:102F40001400A02820C1B2A6206618002084008AA0
:102F50000400FF98D43104F610C638020084008AB9
:102F600042006028FF98B819408A380050C020C23B
:102F7000500028A20084008A2A00C02840C14EA622
:102F80000680008A0E00AC2A342B4154008A1400BB
:102F9000008EDAFFB2A6206618002084008A0400A2
:102FA000FF98D43104F606328634063500F84028FE
:102FB000A6C6000020C1B2A6206602002084008AB6
:102FC00020000428FF98B819408A1E00B2A6206687
:102FD00018002084008A1A00FF98D431A0C1008E06
:102FE000160000C2F6FF008E0C0000C2E4FF008E47
:102FF000040000C2FDFFA1C1A63730C63202EE0AAE
:1030000020860100228800FAA639063D863C063A51
:1030100004F60184608A62004028415410C63A02D6
:103020000084008A54002028FF98B819408A4A007A
:1030300032A6006608000084008A3E0070C040840A
:10304000008A26006084008A300000C2500020A25E
:103050000084008A2400A02820C12EA60280008AB5
:10306000180041546154008ED4FF32A60066180047
:103070000084008A0400FF98D43104F68634EE08F8
:1030800020C25200A8A30D84008AAC000A84008AE2
:10309000AE000884008AD0000784008AD40006307D
:1030A0004628EC0C2628EE0A00C22E0020A2404042
:1030B000408664006488405664000428F208E008F2
:1030C0004028E008E00804400240024020C24C00D2
:1030D000A8A22040C22820C24E00A8A2422920C295
:1030E0002C00A8A2EE0AF20AF20A0638EE080268DC
:1030F00040C80628EE08014400865000608A2E0071
:1031000000C04628EC0C414420C23000A8A24280F6
:103110007088FF987C3120C23000A8A22154422838
:1031200000C06428F20EF20E6068008E44006066F3
:1031300000FF6068008E3A00606600FF008E32007B
:103140004628EC0C414420C23000A8A242806E8880
:10315000FF987C3120C23000A8A221544228642864
:10316000F20EF20E008E0A000628EE080084028895
:10317000615420C25200A8CB863C04F620C22E0027
:1031800028A2014400866400628800C028CA20C2C8
:103190003000A8A2024001540086640064880056F2
:1031A00064004028F20CE00C2428E00CE00C4240C3
:1031B00020C24C00A8A22440C22820C24E00A8A2CF
:1031C000422900C2200760C2500042146154208A84
:1031D000F8FF04F62EA610EE3802FF98561132A61C
:1031E000006610002C8800C0FF98BC21FF98FE2CC0
:1031F00004F620C2240028A2FF98BC2104F64A2A23
:1032000010C63802FF98B819408A180060C25000F2
:1032100038A2008422880A2A38CBA42820C138CAC0
:10322000A0C104F6A42820C1A1C104F660C25000C8
:1032300038A20084008A32000A802E8800C010EE76
:10324000380210EE3A02008E1C00C02840C150C067
:1032500058A20A800C88C0284154208AF2FF008EB0
:10326000040038A258CA00C038CA04F630C61C028E
:10327000208601000E8800860008408A280040C28F
:1032800030000A8C00860002408A1A005CC02028A8
:10329000E00AEC0A2440222900667F00EA08E008E0
:1032A000A02800C004F400C2E0FF84F4009CBCFF2E
:1032B000408A120040C20001221002144154208AA8
:1032C000F6FF00C0A0C104F6009CA0FF408A1200D7
:1032D00040C20001021022144154208AF6FF00C0AF
:1032E000A0C104F600860001408A1A002028E00AE6
:1032F000EC0A2046FC00222900667F00EA08E0086C
:10330000A02800C004F400C2E0FF84F4009CD4FFB5
:10331000408A120040C20001221002144154208A47
:10332000F6FF00C0A0C104F610C61C02EE0800861D
:103330000200208A0E0001C0009C82F5408A06002F
:1033400010EE340204F4D2024028063410C63402CF
:10335000009C32F7408A1C00063C042821C0009CD7
:103360004E004028A63710C63402009C60F6A639ED
:10337000042804F6063C00C2E0FF84F4402806342A
:1033800010C63402009CFEF6408A1C00063C04284D
:1033900022C0009C1A004028A63710C63402009CA8
:1033A0002CF6A639042804F6063C00C2E0FF84F49B
:1033B00020C3DA004C2A4056E002F00CE20CE20C8A
:1033C000A4C020C9A6C020C840C0A8C020C9482A9F
:1033D000AAC020C9502AACC020C941C0AEC020C973
:1033E000A0C0A0C8B0C020A140860000248800C0B2
:1033F00004F400C2E0FF84F466300634063010C6E0
:103400001C02EE0800860200208A540010C6340216
:10341000009C72F6408A48000638063C06340630A6
:1034200020C3DA00A4C020C8282AAAC0A0C8302A15
:10343000ACC0A0C821C0B6C0A0C8B0C020A1463052
:1034400010C63402009C86F546380638063C6638BD
:1034500040860000248800C004F400C2E0FF84F429
:103460000638063C663800C2FDFF84F4063010C6FC
:103470001C02EE0800860200208A400010C63402BA
:10348000009C02F6408A34000638063020C3DA0079
:10349000A4C020C822C0B6C0A0C8B0C020A1463079
:1034A00010C63402009C26F54638063840860000D7
:1034B000248800C004F400C2E0FF84F4063800C28F
:1034C000FDFF84F4063410C61C02EE0800860200DC
:1034D000208A480010C63402009CAAF5408A3C00AD
:1034E000063C063420C3DA00282AAAC0A0C8302A25
:1034F000ACC0A0C823C0B6C0A0C8B0C020A1463090
:1035000010C63402009CC6F44638063C40860000D3
:10351000248800C004F400C2E0FF84F4063C00C22A
:10352000FDFF84F40630063410C61C02EE08008647
:103530000200208A520010C63402009C48F5408ADE
:103540004600063C06380630063420C3DA00282A36
:10355000AAC0A0C8302AACC0A0C8AEC020C824C031
:10356000B6C0A0C8B0C020A1463010C63402009C2E
:103570005CF44638063C063840860000248800C0CB
:1035800004F400C2E0FF84F4063C063800C2FDFFEC
:1035900084F4063410C61C02EE0800860200208A5D
:1035A000480010C63402009CDCF4408A3C00063C13
:1035B000063420C3DA00282AAAC0A0C8302AACC02A
:1035C000A0C825C0B6C0A0C8B0C020A1463010C653
:1035D0003402009CF8F34638063C408600002488FC
:1035E00000C004F400C2E0FF84F4063C00C2FDFF0A
:1035F00084F40630063410C61C02EE080086020071
:10360000208A520010C63402009C7AF4408A460098
:10361000063C06380630063420C3DA00A4C020C8B1
:10362000282AAAC0A0C8302AACC0A0C826C0B6C0EC
:10363000A0C8B0C020A1463010C63402009C8EF352
:103640004638063C063840860000248800C004F452
:1036500000C2E0FF84F4063C063800C2FDFF84F49B
:103660000630063410C61C02EE0800860200208ACE
:10367000520010C63402009C0CF4408A4600063CFE
:1036800006380630063420C3DA00A4C020C8282A31
:10369000AAC0A0C8302AACC0A0C827C0B6C0A0C865
:1036A000B0C020A1463010C63402009C20F346383A
:1036B000063C063840860000248800C004F400C29E
:1036C000E0FF84F4063C063800C2FDFF84F4663057
:1036D000063410C61C02EE0800860200208A720022
:1036E00010C63402009C9EF3408A6600063C0634F5
:1036F00020C3DA00282AAAC0A0C8302AACC0A0C8BB
:1037000028C0B6C0A0C8AEC0A0A0B4C020A0B0C0A1
:1037100020A126300630463010C63402009CAEF29E
:10372000463826380638063C663840860000208A2F
:10373000020004F440860800268800C2E4FF84F4F6
:1037400040860900268800C2FDFF84F400C2E0FF25
:1037500084F4063C663800C2FDFF84F4663006340B
:10376000063010C61C02EE0800860200208A5C00AB
:1037700010C63402009C0EF3408A50000638063C06
:103780000634063020C3DA00282AAAC0A0C8302A8E
:10379000ACC0A0C8AEC020C829C0B6C0A0C8AEC0CA
:1037A000A0A0B0C020A12630463010C63402009C34
:1037B0001CF2463826380638063C6638408600003B
:1037C0002488022804F400C2E0FF84F40638063C92
:1037D000663800C2FDFF84F4663010C61C02EE0895
:1037E00000860200208A380010C63402009C96F23F
:1037F000408A2C0020C3DA002AC0B6C0A0C8B0C0DE
:1038000020A1463010C63402009CC2F1463866380A
:1038100040860000248800C004F400C2E0FF84F465
:10382000663800C2FDFF84F420C1A0C2600240C21D
:10383000C00000C022144154208AF8FF00C010EEDE
:10384000EE0300C2FF0010EE7A0200C20C3310EE4D
:103850007C0200C2FF0010EEBA0200C2AC3210EED1
:10386000BC0200C2FF0010EEBE0200C2C83210EE61
:10387000C00200C2FF0010EEFA0210EE3A0310EE92
:103880007A0310EEBA0300C2483310EEFC0210EEC9
:103890003C0310EE7C0310EEBC0300C2FF0010EEF0
:1038A000FE0210EE3E0310EE7E0310EEBE0300C2D9
:1038B0007C3310EE000310EE400310EE800310EE98
:1038C000C003009CD00500C0009C760001C0009C95
:1038D000700000C180C2A00200AE0084208A3A00BD
:1038E00000C3FF0080C2227DFF98400501C000C3D5
:1038F000FF0080C2427DFF98223C408A100000C336
:10390000FF0080C2367DFF984005008E0C0000C38A
:10391000FF0080C23A7DFF98400510C61C02EE08E9
:1039200000860200208A180002C0009C140003C018
:10393000009C0E0004C0009C080005C0009C020012
:1039400004F6663060C2FFFF70EEE40360282028B2
:10395000F20AE00AE00A2046600240C1C2285AA6E4
:10396000DCA640284268008AC8012029A22800C19C
:1039700080C200BC00C0209E408ABE0110C6FEBDB1
:10398000008655AA208ABA0110C636BC0086464178
:10399000208AAE0110C638BC00865431208AA201AC
:1039A00010C63ABC00863620208A960110C63CBC60
:1039B00000862020208A8A0118C60BBC38C60CBCA1
:1039C000EA0A026842CE18C60DBC44CE10C60EBC30
:1039D00046CE48CE10C616BC4ACE18C611BC38C654
:1039E00012BCEA0A2068CECE58C610BC4084008AB9
:1039F00050014384408A4A014AA64184008A020059
:103A0000E00848A704404CCE2F44F00A024050CEB4
:103A100018C613BC38C614BCEA0A02680084208A9F
:103A20000E0010C620BC30C622BC52CED4CE068CAE
:103A300052CE20C0D4CED4A62084208A3C0052A6E8
:103A4000D0A60250C4A62184008A32002284008AB3
:103A500010002484008A10002884008A1200008E3E
:103A60001C00E208008E1600E208E208008E0E003C
:103A7000E208E208E208008E040000C2FFFF56CE12
:103A800020C0D8CE00C23200C0CA18C625BC00660D
:103A9000010041D600C180C22BBC20C22200C81A3E
:103AA00000004BC0011221164154208AF6FF4CA69B
:103AB00000C180C200BC009C9200408A6A0040C0E5
:103AC0000428F208E008004600BC00C1802880A855
:103AD0002066FF002084008A4E002086E500008AD0
:103AE0003E008B4480A82066FF0020860F00008ADD
:103AF0002E0020660800008A26000428F208E0084C
:103B0000004600BC00C1802820C22200C81A000064
:103B10004BC0011221164154208AF6FF008E080086
:103B200041445084608A98FF01C040D600C0A0C1C3
:103B3000168C00C2DFFFA1C10E8C00C2E0FFA1C144
:103B4000068C00C2FDFFA1C1663804F6DAA65CA7A8
:103B5000A228A468008A08002229A428209E04F62E
:103B600000C2DFFF84F4DEA640C2200050A3A228DA
:103B7000A468008A08002229A428209E04F600C216
:103B8000E2FF84F400C180C200BC00C020C200017A
:103B900002142154208AF8FF04F430C61C02EE0AF5
:103BA00020860200208A22000056020020C3DA008C
:103BB000A4C020C843C0A0C020C9B0C020A1408676
:103BC00000002688AEC020A004F400C2E0FF84F408
:103BD0000584608A460020C201FF0280408A3C00C2
:103BE000202840C23800D01A0000208601044688F0
:103BF00040C22000048C40C2000120C9F00C0428FF
:103C000042284046FF00EA0CEE0C4084228841C066
:103C1000044001440280408A020004F400C2FDFF17
:103C200084F46630063560C2FFFF70EEE403008660
:103C30000000008A460200860600408A340260289E
:103C400006342028F20AE00AE00A2046600240C159
:103C5000C22860860100208A380020C2000848C0BF
:103C60000BC070C61C02EE0E60860100288820C2C0
:103C7000000242C005C061C00630263000C23800D4
:103C8000C01A000020C22000A0C826380638008EC6
:103C90002E000628009C02FF408A0C00009C30FF8A
:103CA000408A1000008E1800063C00C2E0FFA1C14F
:103CB000008EDC01063C00C2DFFFA1C1008ED001F6
:103CC000063000C23000C01A0000A0CE22CF063855
:103CD00024CEA6CF009CACFE00C2EB3C10EE00BC94
:103CE00000C2900018EE02BC00C24B0018EE03BCEC
:103CF00000C2310018EE04BC00C2360018EE05BC4C
:103D000000C22D0018EE06BC00C24B0018EE07BC26
:103D100000C24F0018EE08BC00C2530018EE09BCE8
:103D200000C2200018EE0ABC00C018EE0BBC02C096
:103D300018EE0CBC01C018EE0DBC01C010EE0EBC9C
:103D400001C018EE10BC00C23800C01A000020A04C
:103D500018EE11BC2028EA0AEE0A38EE12BC00C2A6
:103D60003000C01A0000A0A638EE13BC0228EA08F2
:103D700018EE14BC00C2F80018EE15BC22A750EED5
:103D800016BC00C2800018EE24BC00C2290018EE48
:103D900026BC10C6000218EE27BC2028EA0A38EE1E
:103DA00028BC10C6000200465A5A18EE29BC20282A
:103DB000EA0A38EE2ABC863C00C180C22BBC0BC08C
:103DC000211301170154208AF6FF00C2464110EE6C
:103DD00036BC00C2543110EE38BC00C2362010EEA2
:103DE0003ABC00C2202010EE3CBC00C255AA10EE26
:103DF000FEBD00C180C200BC00C0009C68FD408ABE
:103E00008400009C7EFD00C2F8FF10EE00BC00C2E2
:103E1000FFFF10EE02BC00C180C200BC01C0009CCC
:103E200044FD408A6000009C5AFD00C23400C01A64
:103E30000000A0A142C046805A8800C180C200BCD8
:103E400004284630009C1EFD4638408A3800414414
:103E5000008EE2FF009C3E0000C23600C01A000047
:103E600020A0009CDCFA408A200000C0A0C1008E87
:103E70001E0000C2DFFFA1C1008E140000C2E2FFDD
:103E8000A1C1008E0A00008E060000C2FDFFA1C184
:103E9000063D663804F600C2FFFF10EEE00310EEA8
:103EA000E40310EEE80300C018EEE20304F418C6C1
:103EB000E2030084008A2C00063518C6E30300667E
:103EC000FF00FF986867408A220010C6E00300C127
:103ED00080C200BE009C8EFC408A0C00063D00C0E3
:103EE00018EEE20300C004F4063D84F4063D00C26F
:103EF000E0FF84F406302630009CB2FF408A2400A4
:103F00002638063810EEE00338EEE30300C180C225
:103F100000BE009C36FC408A100000C018EEE20390
:103F200000C004F42638263804F600C2FFFF10EE65
:103F3000E00300C2E0FF84F44028EE0CE00CEC0843
:103F4000C8A6204010C6E0030280288818C6E303F4
:103F500006801088022826284630009C96FF4638A6
:103F6000408A0A0000C180C200BE10A204F484F49A
:103F7000263006304028EE0CE00C2028EC0A48A63B
:103F8000204010C6E0030280288818C6E30306809C
:103F90001088022826284630009C58FF4638408A60
:103FA00016000638263800C180C200BE90CA01C083
:103FB00018EEE20300C004F44638463804F622C086
:103FC00056A6004602002080408A4C002630022877
:103FD000009C64FF408A3C00008600000888263868
:103FE0002144008EDAFF0638063020C2FFFF009C15
:103FF0007EFF408A1A0040C23200D0A220840A8884
:1040000040C23000D0A22154D0CA0638A0C104F664
:10401000263804F6263804F600C2E1FF84F4463060
:1040200020C0009C4AFF4638408A1E0006302630D9
:1040300000C23200C0A220840A8800C23000C0A2A0
:104040002144C0CA26380638A0C104F600C010EECC
:10405000F60302C010EEF40356A60046020010EE6E
:10406000F80310C6F40330C6F8030280408A260025
:10407000009CC4FE408A2600008600002A8810C6E4
:10408000F603014410EEF60310C6F403014410EEEB
:10409000F403008ECCFF10C6F603A0C104F604F6AC
:1040A00000F866300634863406356028FF98686765
:1040B000408A3A0020C2320048A20084008A0800E8
:1040C00020C2300048A2168CFF984C40408A1E0047
:1040D00020C2300048CA20C2320041C048CBD6A618
:1040E00044A7F20CF20CE00CA0C1008E0200A1C1AA
:1040F000A637263030C63202EE0A2086010022881A
:1041000000FA2638A639063D863C063C663804F699
:10411000202820860200608A3E002086F8FF408A20
:10412000360002282630009C0EFE408A24004028DB
:1041300026380228009CE6FE408A1E00242820869D
:10414000F8FF408A120020860200608A0A00008E72
:10415000D0FF2638008E020004F400C2E0FF84F491
:1041600000860200608A180000560200C4A621845E
:10417000068800C2FDFF84F4D0A60240A0C104F668
:1041800000C2FDFFA1C104F600F846308634263097
:10419000663006356028009C88FA408A0C0006309C
:1041A0000628009CFA1F0638A0C1A637063010C6A4
:1041B0003202EE08008601000638228800FAA6398D
:1041C000063D66382638863C463804F600F8263028
:1041D0004630663086340635009CB81A408ACC00DA
:1041E000602830EE72050628009C7C25408ABC00C1
:1041F0005EA620C22000C8A20268288800C2E2FF92
:10420000008EA80010C6720510EEEE03009C581236
:10421000608A8E000086E4FF208A9000009C9EFD4C
:10422000408A8800063030C67205009C9808408A93
:104230005A0010C6720510EEEE0300C180C2EE04F3
:10424000009C600E408A44000084208A1A0000C14D
:1042500080C2A2052638263010C040C0009C7809D4
:10426000408A2800008E1A00009CA41300C180C25E
:10427000A2052638263010C040C0009C0015408A98
:104280000A00263800C0A0C1008E20000630063883
:10429000263806300228009C84FD0638A1C1008E15
:1042A0000A0000C2E3FFA1C1008E0000063000C07A
:1042B00010EEEE030638A637063010C63202EE08BE
:1042C000008601000638228800FAA639063D863CA1
:1042D00066384638263804F600F8663086340635E7
:1042E000009CA419063D863CA637063010C6320253
:1042F000EE08008601000638228800FAA6396638E2
:1043000004F600F826304630663086340635009CC8
:104310003C1B063D863CA637063010C63202EE082E
:10432000008601000638228800FAA6396638463829
:10433000263804F600F826304630663086340635D6
:10434000009C2200063D863CA637063010C632028D
:10435000EE08008601000638228800FAA639663881
:104360004638263804F60635009C2819408AAC00E9
:10437000602830EE72050628009CEC23408A9C00E1
:104380005EA620C22000C8A20268288800C2E2FF00
:10439000008E880010C6720510EEEE03009CC81057
:1043A000408A780020282F64F20AE00A204600BCE8
:1043B00000C182280BAE00661000288800C2DCFF16
:1043C000008E58001AA610EECC040284488800C261
:1043D000FDFF008E460010C6CC04009C4E00408AB3
:1043E0003A0010C6CC04009C26FD408A2E00062808
:1043F00030C6CC04009C681D009CB2FA408A1C00A8
:1044000010C6720510EEEE03009C0E15408A0C00DB
:1044100000C010EEEE03063DA0C104F6063000C059
:1044200010EEEE030638063DA1C104F610EEEE03D1
:1044300000C020C1A0C25205009C7E02408A5A00E2
:10444000063000C180C2520580A82066FF00208689
:104450000000008A38002086E500008A2A002086B5
:104460002E00008A22008BAE2066FF0020860F00FF
:10447000008A1400422840660800208A0A00063894
:1044800000C2DBFFA1C104F60638008EA4FF063887
:1044900000C010EEEE03A0C104F60086DEFF248803
:1044A000008EECFF063000C010EEEE030638A1C10E
:1044B00004F600C2A65C04F600C004F6663086343A
:1044C00000C220002BC021162154208AF8FF863C10
:1044D000863460C000A80066FF00008A5400008691
:1044E0002E00008A1800009C7600408A66006884CE
:1044F000408A600038D261448144008ED6FF6084D7
:10450000008A5000814468C000A80066FF00008A4D
:104510002A0000862E00008A3A00009C4200408A51
:1045200032006B84408A2C0038D261448144008E72
:10453000D6FF6084008A1C00008E0000863C20A804
:104540000066FF000086E500008A0A0000C0A0C1E6
:10455000663804F6863C00C2FDFFA1C1663804F649
:1045600000862000608AA60000867F00008A9E00E8
:1045700000862000008A960000862E00008A8E00A9
:1045800000862200008A860000862A00008A7E00BB
:1045900000862B00008A760000862C00008A6E00C0
:1045A00000862F00008A660000863A00008A5E00BE
:1045B00000863B00008A560000863C00008A4E00C0
:1045C00000863D00008A460000863E00008A3E00CC
:1045D00000863F00008A360000865B00008A2E00BD
:1045E00000865C00008A260000865D00008A1E00AE
:1045F00000867C00008A160000866100608A0C003C
:1046000000867B00408A04000056200004F400C2AB
:10461000FDFF84F4663040C028C06228615418AAA7
:104620000066FF0000862000208A0A002154208AAC
:10463000E8FF008E0200422860C02BC0022801540F
:104640000884608A180000AA0066FF000086200027
:10465000208A06002154008EE2FF6228685420C0A0
:104660002480408A0A0008AA28D22144008EF0FF44
:104670006084008A200000C22E0028D2214440C05D
:104680004680408A10000428084400AA28D2214409
:104690004144008EEAFF00C028D20228A0C166383B
:1046A00004F640AE0066FF00008A040000C004F477
:1046B00000C2DFFF84F400C004F466308634202892
:1046C000F00A40284F6410C6EE030084208A1400CC
:1046D0004EA60F44F0082080408ACE004CA602402F
:1046E000008E42004630263050C6EE032084008AF9
:1046F000260026300428009C3EF82638408AB40064
:104700000086F7FF008AAC000086F8FF408AB400FC
:1047100040282154008ED4FF0428009C42FA408A8D
:104720009200263846382630463050C6E403408092
:10473000288858C6E6034680168810EEE40378EE13
:10474000E60300C180C200BC009C00F4408A440023
:10475000463826380428F208E008004600BC863CAB
:10476000863400C1802800C22000011321170154A3
:10477000208AF6FF482A405600BCF00CE20C508418
:10478000608A040040C021440228F2080468863C84
:10479000663804F400C2FFFF10EEE4034638263802
:1047A000863C663800C2E0FF84F4863C663800C26E
:1047B000DEFF84F426384638863C663800C2E0FFC7
:1047C000A1C104F626384638863C663800C2DEFFB2
:1047D000A1C104F620C030EE9E0530EE9C05009C81
:1047E000D8FE408A4A00A0A82066FF00008A3A004E
:1047F0002086E500008A28004BC0B0AA2066FF0092
:1048000020860F00008A100020660800208A100011
:10481000009C8C0AA0C104F6009C4609008EBEFFD5
:1048200040C050EE9E05008EB4FF00C2DEFF84F44F
:1048300084F46630063420C010C6EE030084208A5B
:1048400014004EA60F44F0082080408AF2004CA6C7
:104850000240008E3E00263050C6EE032084008ABF
:10486000260026300428009CCEF62638408AF20026
:104870000086F7FF008AEA000086F8FF408AF00011
:1048800040282154008ED4FF0428009CD2F8408A8E
:10489000D0002638263050C6E4034080288858C609
:1048A000E6034680168810EEE40378EEE60300C1C6
:1048B00080C200BC009C94F2408A9000263840C020
:1048C0000428F208E008004600BC20C1A02820A867
:1048D0000066FF0000860000008A64000086E50094
:1048E000008A4E000BC020AA0066FF0000860F0061
:1048F000008A3E0000660800208A3600063C063426
:10490000263046302BC001120066FF00211340669E
:10491000FF000480208A16002154208AE8FF4638D0
:1049200026380228F2080468063C663804F4463843
:10493000263841445084608A86FF2144008EF8FE68
:10494000063C663800C2E4FFA1C104F600C2FFFFC6
:1049500010EEE4032638063C663800C2E0FFA1C131
:1049600004F62638063C663800C2E0FFA1C104F612
:104970002638063C663800C2E4FFA1C104F610C622
:10498000EE030084208A1C004EA60F44F00820800D
:10499000408A08004CA60240A0C104F600C2DEFF17
:1049A000A1C104F62630463050C6EE032084008AAA
:1049B000260026300428009C7EF52638408A2A00EE
:1049C0000086F7FF008A22000086F8FF408A260052
:1049D00040282154008ED4FF0428009C82F7408A8E
:1049E000080046382638A0C104F64638263800C2EA
:1049F000E0FFA1C104F64638263800C2DEFFA1C19F
:104A000004F650C6EE0304284630009C2AF54638CA
:104A1000408AAE000086F7FF008AA2000086F8FFF9
:104A2000408A06004028008EDCFF46300428009CA7
:104A30002EF7408A8200063000C180C200BC009C74
:104A40000AF1408A700020C1A0C200BC30C020A87A
:104A50000066FF0000860000208A060000C2E50014
:104A600020D0A04620002154208AE2FF063800C151
:104A700080C200BC009CEEF0408A3C00009C3EF5E9
:104A8000408A340026380630022826382630009C1A
:104A9000DEF4408A2200009CEAF00638009CC0F652
:104AA000408A1E0000C180C200BC009CB8F0408A51
:104AB0001000A0C104F626382638A1C104F600C2B1
:104AC000E0FFA1C104F66630AC2AA0463000342BCA
:104AD00020CEA2CE009C88F6408ABC00AC2AA0461C
:104AE0003400342B20CE009C9AF020C1A0C200BC20
:104AF00000C22E00211600C220004AC021164154D7
:104B0000208AF8FF10C02116009C9A00AC2AA0460B
:104B10003000342B20A620C1A0C200BCBA4420C85B
:104B2000A24400C020C8A24420C820C1A0C200BC2A
:104B3000A046200000C22E002116211600C220002F
:104B400049C021164154208AF8FF10C02116009C4C
:104B50005400AC2AA0463200342B20A620C1A0C2AB
:104B600000BCA0462000BA4420C8A24400C020C80F
:104B7000A24420C8AC2AA0463400342B20A600C191
:104B800080C200BC009CDEEF408A1600009C12022E
:104B900000C0A0C1663804F600C2FDFF6638A1C19E
:104BA00004F6663804F600C021162116009C08F9A8
:104BB00020C8A244009CFAF820C8A24420C8A244FD
:104BC00000C020C8A244009CEEF820C8A244009C6B
:104BD000E0F820C8A24404F666300634AC2AA046A9
:104BE0003000342B20CEA2CE24CF20C0009C8EFDDE
:104BF000408A8800263000C180C200BC009C4CEF77
:104C0000408A7600263840C00428F208E0080046B2
:104C100000BC20C1A02820A80066FF00008600007C
:104C2000008A16000086E500008A0E004144508488
:104C3000608AD4FF2144008EB2FF063C0634263041
:104C4000009C7A002638009C34FD408A62000630C1
:104C500000C180C200BC009C0CEF408A580006389E
:104C600010EEE40378EEE60300C2FFFF10EEE80367
:104C700000C0A0C1063C663804F626380086DEFF78
:104C8000208A220010C6EE030084008A1800263015
:104C9000009C6EFD2638408A0400008E4EFF063CC4
:104CA0006638A1C104F6063C663800C2E1FF84F410
:104CB000063C663804F62638063C663804F60BC017
:104CC000011321170154208AF6FF8C2A80463000F8
:104CD000142B00A620D0A14400C020D0A14420D095
:104CE000A144009CD2F720C8A244009CC4F720C86D
:104CF000A24420C8A24400C020C8A244009CB8F727
:104D000020C8A244009CAAF720C8A24402A620C83A
:104D1000A24404A620C8A24400C020C804F6AC2ABD
:104D2000A0463E00342BA0A82066FF000240F208F7
:104D3000E008004600BC20C1A02804F60634009C10
:104D4000F0FA408A58002028F00A40284F640428CE
:104D5000F208E008004600BC20C1A02800C2E5001F
:104D600020D0009C18FC408A2A00063000C180C276
:104D700000BC009CF0ED408A1E00063810EEE403F3
:104D800078EEE60300C2FFFF10EEE80300C0A0C10A
:104D9000063C04F6063C04F62638063C04F6063CBF
:104DA00004F600C2FFFF10EEE40304F600C018EEA4
:104DB000B90520C02B84408A140000C2200020C105
:104DC000A0C2AE05A24020D02144008EE6FF00A87C
:104DD0000066FF0000862000008A0C0000862E007E
:104DE000008A0400008E0C0001C018EEB905814451
:104DF000008EDAFF00C2FFFF10EEBA0520C008AA3D
:104E00000066FF000084008A120000862E00208ABF
:104E1000040030EEBA052144008EE2FF30EEBC05FE
:104E200050C6BA054086FFFF208A040050C6BC0564
:104E300020C060C02480408A460008AA0066FF00A7
:104E4000214400862000008A2C0000862E00008A63
:104E50002400009CA8006884408A100020C1A0C2E1
:104E6000AE05A64020D06144008EC8FF01C018EEF8
:104E7000B905008EBEFF01C018EEB905008EB4FF63
:104E80006084208A120000C25F0020C1A0C2AE056B
:104E900020D001C018EEB90510C6BA050086FFFF84
:104EA000008A4E002028214450C6BC0568C02480DA
:104EB000408A3E0008AA0066FF00214400862000C8
:104EC000008A2400009C36006B84408A100020C1B8
:104ED000A0C2AE05A64020D06144008ED0FF01C024
:104EE00018EEB905008EC6FF01C018EEB905008E98
:104EF000BCFF18C6B9050066FF00A0C104F6008615
:104F00006100608A180000867B00408A100006302D
:104F100001C018EEB90506380056200004F6009CC2
:104F20003EF6608A0A0001C018EEB90500C25F00B3
:104F300004F620C02B84408A140000C2200020C147
:104F4000A0C2A205A24020D02144008EE6FF20C0CE
:104F50002884408A1C0000C180C2AE05824000A89F
:104F60000066FF0000862000008A06002144008EB3
:104F7000DEFF263060C000C040866400608A0A0000
:104F8000405664000144008EEEFF0084008A0E004B
:104F90000046300020C1A0C2BE0520D0614400C040
:104FA0004A84608A08004A540144008EF2FF00845B
:104FB000208A06006084008A140006300046300013
:104FC00020C1A0C2BE05A64020D0614406380428F6
:104FD0000046300020C1A0C2BE05A64020D06144DA
:104FE00026384628414408C004502080608A0200C8
:104FF000202840C04280408A1A0000C180C2AE050D
:10500000844000A820C1A0C2A205A44020D04144F1
:10501000008EE0FF00C27E0020C1A0C2A205A44015
:1050200020D0414420C02680408A1C0000C180C29C
:10503000BE05824000A820C1A0C2A205A44020D085
:1050400021444144008EDEFF28C02B84408A1A0090
:1050500000C180C2AE05824000A820C1A0C2A20546
:10506000A24020D02144008EE0FF04F6063400C0A8
:1050700020C02B84408A28004028E20C602861640C
:105080006084008A0400406E8000622898AB6066ED
:10509000FF0046404066FF0004282144008ED2FFF6
:1050A000063C04F678EEC205063420C1A0C2A20573
:1050B000009C08F4408A1200063C009C760078C6EA
:1050C000C2056066FF00A0C104F6063C009CDCFC43
:1050D00041C04630009C5AFE78C6C2056066FF009B
:1050E00000C180C2A205009C48F7608A18000086B3
:1050F000E0FF008A2C00463878C6C2056066FF00D3
:1051000001C0A0C104F6463841444086E803608AE5
:10511000C0FF78C6C2056066FF0000C2E1FFA1C102
:1051200004F6463878C6C2056066FF0000C2E0FF9C
:10513000A1C104F6063401120066FF000084008A53
:105140001A0000866100608A0E0000867B00408A9B
:105150000600063C01C004F6008EDAFF063C00C0E3
:1051600004F606306630A0A82066FF00422840669C
:1051700040004084008A3C00422840661F00408472
:10518000008A0E0143840488408A060150EE9E0581
:105190004DC030AB4066FF0050EEA00500C180C29C
:1051A0007C0540C2200020C081164154208AF6FFB1
:1051B000008E2E0050C69E0540860080408AD20098
:1051C000022800661F000480208AC6000DC020AAA5
:1051D0000066FF0050C6A0054066FF000480208ADC
:1051E000B000A0A820661F0021540228E00AE00AAF
:1051F0004228E00A24402040622800C180C27C0589
:10520000824020C02D84408A64002584608A120078
:105210002B84608A160042284B54E00C5C44008EBC
:1052200012004228E00C4144008E080042284554F8
:10523000E00C4E4430AA0066FF004144063030AB1B
:105240004066FF004084208A0C0006380084008AF3
:105250001C00008E06000638008E360060861F0097
:10526000408A2E00011661442144008E96FFA0A8BA
:1052700020661F002184208A0C0020C2008030EEAE
:105280009E05008E0600215430EE9E0566380638D5
:1052900004F620C2FFFF30EE9E056638063804F69D
:1052A0000630663020C030EE9C0550C69E05408614
:1052B0000080208A660000C020C02B84408A28001D
:1052C0004028E20C602861646084008A0400406E1B
:1052D00080006228B8AB6066FF0046404066FF0071
:1052E00004282144008ED2FF50C6A0054066FF006E
:1052F0000480208A260000C180C27C0520C0208650
:105300001F00408A120001120066FF000084008A1C
:1053100006002144008EE6FF30EE9C056638063814
:1053200004F606302084008A0400006E400020C18C
:10533000A0C2AE0520D00FC0A0C2B90520D000C0C9
:10534000A0C2BA0520D00428A0C2BB0520D000C04E
:10535000A0C2C80520D0A0C2C90520D0063801547B
:105360006028E00EE00E4628E00E6440604020C059
:105370002D84408A7E002584608A12002B84608AF6
:10538000160042284B54E00C5C44008E1200422868
:10539000E00C4144008E080042284554E00C4E4485
:1053A00020C1A0C2AE05A4400628024050C69C05FC
:1053B0000480608A1600008A2C0000C2FF0020D002
:1053C000A14400C2FF0020D0008E220000C180C294
:1053D0007C05804000A80066FF0020D0A14400C0EA
:1053E00020D0008E080000C020D0A14420D021444D
:1053F000008E7CFF04F626304630863440C000C163
:1054000080C2EE04844000A80066FF0000866100B0
:10541000608A0C0000867B00408A04000056200051
:1054200020C1A0C27C05A440A0A82066FF00208661
:105430006100608A0C0020867B00408A04002056B0
:1054400020000280208A16000084008A0600414461
:10545000008EAAFF863C46382638A0C104F6863C5A
:1054600046382638A1C104F6663000C010EE9E050D
:1054700010EE9C0520C010C6EE030084208A1400A4
:105480004EA60F44F0082080408A4E014CA60240F0
:10549000008E3E00263050C6EE032084008A26008F
:1054A00026300428009C90EA2638408A4A0100866B
:1054B000F7FF008A42010086F8FF408A4601402833
:1054C0002154008ED4FF0428009C94EC408A2801CB
:1054D0002638263050C6E4034080208A0A0058C689
:1054E000E6034680008A160010EEE40378EEE60339
:1054F00000C180C200BC009C52E6408AE60026380B
:1055000040C00428F208E008004600BC20C1A028E2
:1055100020A80066FF0000860000008ABC0000860C
:10552000E500008A92000BC020AA0066FF000086FA
:105530000F00008A720000660800208A7A00263078
:105540004630009C5AFD4638263810C69C0500841B
:10555000008A0800009C9EFE608A740018C61B0525
:105560000066FF000084008A300000C180C20E0582
:10557000263046302BC001120066FF002113406622
:10558000FF000480208A0E002154208AE8FF46385C
:105590002638008E3A004638263800C010EE9E05A8
:1055A00010EE9C05008E1A0026304630009CB2FB9F
:1055B00046382638008E0A0000C010EE9E0510EE18
:1055C0009C0541445084608A38FF2144008EA6FE29
:1055D0000228F2080468663804F4663800C2E4FF62
:1055E000A1C104F600C2FFFF10EEE40326386638BE
:1055F00000C2E0FFA1C104F62638663800C2E0FF11
:10560000A1C104F62638663800C2E4FFA1C104F641
:1056100000C180C2EE0420C1A0C27C0520C000A849
:105620000066FF0020D00084008A0A008144A14463
:105630002144008EE8FF30EE9C0504F6AC2AA0461B
:105640003600342B20D020C0AC2AA0463800342BA2
:10565000A0C8009C28F3408AEA00263000C180C21E
:1056600000BC009CE6E4408A0E01263820C040C001
:105670000228F208E008004600BC20C1A02820A8AB
:105680000066FF000086E500008A0E00008600002C
:10569000008A060040C0008E2A004144AC2AA04681
:1056A0003600342B20A80066FF004080608A14007A
:1056B000015442284050AC2AA0463800342BA0A008
:1056C000A0C104F621443084608AA4FF4084008A8B
:1056D0005E0010C0045040C01084408A2C00063088
:1056E000F208E008004600BC20C1A02820A80066FF
:1056F000FF0000860000208A080000C2E50020D0DC
:1057000041C006380144008ECEFF4084008A20004C
:10571000AC2AA0463800342BA0A0009C60F2408A3E
:105720001E0000C180C200BC009C3AE4408A100008
:10573000AC2AA0463800342BA0A02144008E08FFDC
:10574000A1C104F60086DEFF208A240010C6EE0305
:105750000084008A1A00009CA8F2408A0E00AC2A3D
:10576000A0463800342BA0A0008EDCFEA1C104F6B8
:1057700000C2E1FFA1C104F62638A1C104F6AC2A9B
:10578000A0463000342B20CEA2CE24CFAC2AA04697
:105790003700342BA0D100C180C2A205009CCCF8F8
:1057A0000066FF00AC2AA0463A00342B20D010C679
:1057B0009C050C4420C00D84608A08000D542144CF
:1057C000008EF2FFAC2AA0463B00342BA0D002286A
:1057D0000144AC2AA0463700342BA0A96066FF0024
:1057E000009C58FE408A1C01AC2AA0463C00342B89
:1057F000A0C8AC2AA0463E00342B20D100C0AC2A61
:10580000A0463F00342B20D08C2A80463F00142B2A
:1058100000A80066FF008C2A80463B00142B80A85D
:105820002066FF0002800488408A7200008A4200DD
:1058300006304228405020C00084208A020021C047
:105840000428AC2AA0463A00342B20A94066FF0069
:10585000009CCEFA0638009CC4F400C180C2AE059C
:1058600040C220008112A1164154208AF6FF008E0A
:105870000E00009CA8F400C180C2A205009C3EF46A
:105880008C2A80463F00142B00A80066FF000144CC
:10589000AC2AA0463F00342B20D0008E6AFFAC2AF1
:1058A000A0463700342BA0A96066FF008C2A8046F2
:1058B0003C00142B80A0009CC4F0408A46000630B7
:1058C00000C180C200BC009C9CE2408A34000638C3
:1058D00010EEE403AC2AA0463700342BA0A9606682
:1058E000FF0078EEE60300C2FFFF10EEE803AC2AEB
:1058F000A0463700342BA0A96066FF0000C0A0C1FD
:1059000004F626380630AC2AA0463700342BA0A96E
:105910006066FF000638A1C104F66630009C48FBB3
:10592000408AB60040284F64F00806300428F20888
:10593000E008004600BC00C180284630009C2CF7DF
:105940000066FF006028463800C2E50000D04084B1
:10595000008A480041540428F208E008004600BCD0
:1059600020C1A0280BC020AA0066FF0000860F00FF
:10597000208A28000DC020AA0066FF000680208A29
:105980001A0020A80066FF0020C2E500A0D0006633
:1059900040000084208A0400008EB2FF263866385A
:1059A000009CDAEF408A2E00063000C180C200BCA5
:1059B000009CB2E1408A1800063810EEE40378EE4D
:1059C000E60300C2FFFF10EEE80300C0A0C104F62A
:1059D0002638A1C104F6A1C104F66638A1C104F6B7
:1059E0000228009C7AE7408A1E0000C180C200BCE9
:1059F000009C58E1408A1000009CA6F300C180C2C0
:105A00003ABC80A0A0C104F6A1C104F6482A50EE19
:105A1000E404502A58EEE60418EEE70430EEE804F9
:105A200050C050EEEA04009C760200A80066FF0019
:105A3000009C7A02408ABE00010480A82066FF0014
:105A400020863A00208A2000009C820200564100F5
:105A500018EEE70440C050EEE80450C6E4044244A7
:105A600050EEE404008EAA00009C340200C2CE076F
:105A7000A02800C0202960C000A80066FF000086A2
:105A80003A00008A1E0000862F00008A640000840D
:105A9000008A5E006B84408A58002116010461442C
:105AA000008ED4FF6284608A480000C0211600C2C4
:105AB000CE0780286630009C2205408A24002DAF46
:105AC00040660400208A200018EEE70430EEE80467
:105AD000663850C6E4044640414450EEE404008E6B
